{
  "address": "0x426ba2c2D5D57E0bFB4fB75362617EA1b8b6202D",
  "abi": [
    {
      "inputs": [],
      "stateMutability": "nonpayable",
      "type": "constructor"
    },
    {
      "anonymous": false,
      "inputs": [
        {
          "indexed": true,
          "internalType": "address",
          "name": "account",
          "type": "address"
        },
        {
          "indexed": true,
          "internalType": "address",
          "name": "operator",
          "type": "address"
        },
        {
          "indexed": false,
          "internalType": "bool",
          "name": "approved",
          "type": "bool"
        }
      ],
      "name": "ApprovalForAll",
      "type": "event"
    },
    {
      "anonymous": false,
      "inputs": [
        {
          "indexed": false,
          "internalType": "address",
          "name": "account",
          "type": "address"
        }
      ],
      "name": "Paused",
      "type": "event"
    },
    {
      "anonymous": false,
      "inputs": [
        {
          "indexed": true,
          "internalType": "bytes32",
          "name": "role",
          "type": "bytes32"
        },
        {
          "indexed": true,
          "internalType": "bytes32",
          "name": "previousAdminRole",
          "type": "bytes32"
        },
        {
          "indexed": true,
          "internalType": "bytes32",
          "name": "newAdminRole",
          "type": "bytes32"
        }
      ],
      "name": "RoleAdminChanged",
      "type": "event"
    },
    {
      "anonymous": false,
      "inputs": [
        {
          "indexed": true,
          "internalType": "bytes32",
          "name": "role",
          "type": "bytes32"
        },
        {
          "indexed": true,
          "internalType": "address",
          "name": "account",
          "type": "address"
        },
        {
          "indexed": true,
          "internalType": "address",
          "name": "sender",
          "type": "address"
        }
      ],
      "name": "RoleGranted",
      "type": "event"
    },
    {
      "anonymous": false,
      "inputs": [
        {
          "indexed": true,
          "internalType": "bytes32",
          "name": "role",
          "type": "bytes32"
        },
        {
          "indexed": true,
          "internalType": "address",
          "name": "account",
          "type": "address"
        },
        {
          "indexed": true,
          "internalType": "address",
          "name": "sender",
          "type": "address"
        }
      ],
      "name": "RoleRevoked",
      "type": "event"
    },
    {
      "anonymous": false,
      "inputs": [
        {
          "indexed": true,
          "internalType": "address",
          "name": "operator",
          "type": "address"
        },
        {
          "indexed": true,
          "internalType": "address",
          "name": "from",
          "type": "address"
        },
        {
          "indexed": true,
          "internalType": "address",
          "name": "to",
          "type": "address"
        },
        {
          "indexed": false,
          "internalType": "uint256[]",
          "name": "ids",
          "type": "uint256[]"
        },
        {
          "indexed": false,
          "internalType": "uint256[]",
          "name": "values",
          "type": "uint256[]"
        }
      ],
      "name": "TransferBatch",
      "type": "event"
    },
    {
      "anonymous": false,
      "inputs": [
        {
          "indexed": true,
          "internalType": "address",
          "name": "operator",
          "type": "address"
        },
        {
          "indexed": true,
          "internalType": "address",
          "name": "from",
          "type": "address"
        },
        {
          "indexed": true,
          "internalType": "address",
          "name": "to",
          "type": "address"
        },
        {
          "indexed": false,
          "internalType": "uint256",
          "name": "id",
          "type": "uint256"
        },
        {
          "indexed": false,
          "internalType": "uint256",
          "name": "value",
          "type": "uint256"
        }
      ],
      "name": "TransferSingle",
      "type": "event"
    },
    {
      "anonymous": false,
      "inputs": [
        {
          "indexed": false,
          "internalType": "string",
          "name": "value",
          "type": "string"
        },
        {
          "indexed": true,
          "internalType": "uint256",
          "name": "id",
          "type": "uint256"
        }
      ],
      "name": "URI",
      "type": "event"
    },
    {
      "anonymous": false,
      "inputs": [
        {
          "indexed": false,
          "internalType": "address",
          "name": "account",
          "type": "address"
        }
      ],
      "name": "Unpaused",
      "type": "event"
    },
    {
      "inputs": [],
      "name": "CAPTAIN_AMERICA",
      "outputs": [
        {
          "internalType": "uint256",
          "name": "",
          "type": "uint256"
        }
      ],
      "stateMutability": "view",
      "type": "function"
    },
    {
      "inputs": [],
      "name": "DEFAULT_ADMIN_ROLE",
      "outputs": [
        {
          "internalType": "bytes32",
          "name": "",
          "type": "bytes32"
        }
      ],
      "stateMutability": "view",
      "type": "function"
    },
    {
      "inputs": [],
      "name": "IRON_MAN",
      "outputs": [
        {
          "internalType": "uint256",
          "name": "",
          "type": "uint256"
        }
      ],
      "stateMutability": "view",
      "type": "function"
    },
    {
      "inputs": [],
      "name": "MINTER_ROLE",
      "outputs": [
        {
          "internalType": "bytes32",
          "name": "",
          "type": "bytes32"
        }
      ],
      "stateMutability": "view",
      "type": "function"
    },
    {
      "inputs": [],
      "name": "PAUSER_ROLE",
      "outputs": [
        {
          "internalType": "bytes32",
          "name": "",
          "type": "bytes32"
        }
      ],
      "stateMutability": "view",
      "type": "function"
    },
    {
      "inputs": [],
      "name": "SPIDER_MAN",
      "outputs": [
        {
          "internalType": "uint256",
          "name": "",
          "type": "uint256"
        }
      ],
      "stateMutability": "view",
      "type": "function"
    },
    {
      "inputs": [],
      "name": "THOR",
      "outputs": [
        {
          "internalType": "uint256",
          "name": "",
          "type": "uint256"
        }
      ],
      "stateMutability": "view",
      "type": "function"
    },
    {
      "inputs": [
        {
          "internalType": "address",
          "name": "account",
          "type": "address"
        },
        {
          "internalType": "uint256",
          "name": "id",
          "type": "uint256"
        }
      ],
      "name": "balanceOf",
      "outputs": [
        {
          "internalType": "uint256",
          "name": "",
          "type": "uint256"
        }
      ],
      "stateMutability": "view",
      "type": "function"
    },
    {
      "inputs": [
        {
          "internalType": "address[]",
          "name": "accounts",
          "type": "address[]"
        },
        {
          "internalType": "uint256[]",
          "name": "ids",
          "type": "uint256[]"
        }
      ],
      "name": "balanceOfBatch",
      "outputs": [
        {
          "internalType": "uint256[]",
          "name": "",
          "type": "uint256[]"
        }
      ],
      "stateMutability": "view",
      "type": "function"
    },
    {
      "inputs": [
        {
          "internalType": "address",
          "name": "account",
          "type": "address"
        },
        {
          "internalType": "uint256",
          "name": "id",
          "type": "uint256"
        },
        {
          "internalType": "uint256",
          "name": "value",
          "type": "uint256"
        }
      ],
      "name": "burn",
      "outputs": [],
      "stateMutability": "nonpayable",
      "type": "function"
    },
    {
      "inputs": [
        {
          "internalType": "address",
          "name": "account",
          "type": "address"
        },
        {
          "internalType": "uint256[]",
          "name": "ids",
          "type": "uint256[]"
        },
        {
          "internalType": "uint256[]",
          "name": "values",
          "type": "uint256[]"
        }
      ],
      "name": "burnBatch",
      "outputs": [],
      "stateMutability": "nonpayable",
      "type": "function"
    },
    {
      "inputs": [
        {
          "internalType": "bytes32",
          "name": "role",
          "type": "bytes32"
        }
      ],
      "name": "getRoleAdmin",
      "outputs": [
        {
          "internalType": "bytes32",
          "name": "",
          "type": "bytes32"
        }
      ],
      "stateMutability": "view",
      "type": "function"
    },
    {
      "inputs": [
        {
          "internalType": "bytes32",
          "name": "role",
          "type": "bytes32"
        },
        {
          "internalType": "uint256",
          "name": "index",
          "type": "uint256"
        }
      ],
      "name": "getRoleMember",
      "outputs": [
        {
          "internalType": "address",
          "name": "",
          "type": "address"
        }
      ],
      "stateMutability": "view",
      "type": "function"
    },
    {
      "inputs": [
        {
          "internalType": "bytes32",
          "name": "role",
          "type": "bytes32"
        }
      ],
      "name": "getRoleMemberCount",
      "outputs": [
        {
          "internalType": "uint256",
          "name": "",
          "type": "uint256"
        }
      ],
      "stateMutability": "view",
      "type": "function"
    },
    {
      "inputs": [
        {
          "internalType": "bytes32",
          "name": "role",
          "type": "bytes32"
        },
        {
          "internalType": "address",
          "name": "account",
          "type": "address"
        }
      ],
      "name": "grantRole",
      "outputs": [],
      "stateMutability": "nonpayable",
      "type": "function"
    },
    {
      "inputs": [
        {
          "internalType": "bytes32",
          "name": "role",
          "type": "bytes32"
        },
        {
          "internalType": "address",
          "name": "account",
          "type": "address"
        }
      ],
      "name": "hasRole",
      "outputs": [
        {
          "internalType": "bool",
          "name": "",
          "type": "bool"
        }
      ],
      "stateMutability": "view",
      "type": "function"
    },
    {
      "inputs": [
        {
          "internalType": "address",
          "name": "account",
          "type": "address"
        },
        {
          "internalType": "address",
          "name": "operator",
          "type": "address"
        }
      ],
      "name": "isApprovedForAll",
      "outputs": [
        {
          "internalType": "bool",
          "name": "",
          "type": "bool"
        }
      ],
      "stateMutability": "view",
      "type": "function"
    },
    {
      "inputs": [
        {
          "internalType": "address",
          "name": "to",
          "type": "address"
        },
        {
          "internalType": "uint256",
          "name": "id",
          "type": "uint256"
        },
        {
          "internalType": "uint256",
          "name": "amount",
          "type": "uint256"
        },
        {
          "internalType": "bytes",
          "name": "data",
          "type": "bytes"
        }
      ],
      "name": "mint",
      "outputs": [],
      "stateMutability": "nonpayable",
      "type": "function"
    },
    {
      "inputs": [
        {
          "internalType": "address",
          "name": "to",
          "type": "address"
        },
        {
          "internalType": "uint256[]",
          "name": "ids",
          "type": "uint256[]"
        },
        {
          "internalType": "uint256[]",
          "name": "amounts",
          "type": "uint256[]"
        },
        {
          "internalType": "bytes",
          "name": "data",
          "type": "bytes"
        }
      ],
      "name": "mintBatch",
      "outputs": [],
      "stateMutability": "nonpayable",
      "type": "function"
    },
    {
      "inputs": [],
      "name": "pause",
      "outputs": [],
      "stateMutability": "nonpayable",
      "type": "function"
    },
    {
      "inputs": [],
      "name": "paused",
      "outputs": [
        {
          "internalType": "bool",
          "name": "",
          "type": "bool"
        }
      ],
      "stateMutability": "view",
      "type": "function"
    },
    {
      "inputs": [
        {
          "internalType": "bytes32",
          "name": "role",
          "type": "bytes32"
        },
        {
          "internalType": "address",
          "name": "account",
          "type": "address"
        }
      ],
      "name": "renounceRole",
      "outputs": [],
      "stateMutability": "nonpayable",
      "type": "function"
    },
    {
      "inputs": [
        {
          "internalType": "bytes32",
          "name": "role",
          "type": "bytes32"
        },
        {
          "internalType": "address",
          "name": "account",
          "type": "address"
        }
      ],
      "name": "revokeRole",
      "outputs": [],
      "stateMutability": "nonpayable",
      "type": "function"
    },
    {
      "inputs": [
        {
          "internalType": "address",
          "name": "from",
          "type": "address"
        },
        {
          "internalType": "address",
          "name": "to",
          "type": "address"
        },
        {
          "internalType": "uint256[]",
          "name": "ids",
          "type": "uint256[]"
        },
        {
          "internalType": "uint256[]",
          "name": "amounts",
          "type": "uint256[]"
        },
        {
          "internalType": "bytes",
          "name": "data",
          "type": "bytes"
        }
      ],
      "name": "safeBatchTransferFrom",
      "outputs": [],
      "stateMutability": "nonpayable",
      "type": "function"
    },
    {
      "inputs": [
        {
          "internalType": "address",
          "name": "from",
          "type": "address"
        },
        {
          "internalType": "address",
          "name": "to",
          "type": "address"
        },
        {
          "internalType": "uint256",
          "name": "id",
          "type": "uint256"
        },
        {
          "internalType": "uint256",
          "name": "amount",
          "type": "uint256"
        },
        {
          "internalType": "bytes",
          "name": "data",
          "type": "bytes"
        }
      ],
      "name": "safeTransferFrom",
      "outputs": [],
      "stateMutability": "nonpayable",
      "type": "function"
    },
    {
      "inputs": [
        {
          "internalType": "address",
          "name": "operator",
          "type": "address"
        },
        {
          "internalType": "bool",
          "name": "approved",
          "type": "bool"
        }
      ],
      "name": "setApprovalForAll",
      "outputs": [],
      "stateMutability": "nonpayable",
      "type": "function"
    },
    {
      "inputs": [
        {
          "internalType": "bytes4",
          "name": "interfaceId",
          "type": "bytes4"
        }
      ],
      "name": "supportsInterface",
      "outputs": [
        {
          "internalType": "bool",
          "name": "",
          "type": "bool"
        }
      ],
      "stateMutability": "view",
      "type": "function"
    },
    {
      "inputs": [],
      "name": "unpause",
      "outputs": [],
      "stateMutability": "nonpayable",
      "type": "function"
    },
    {
      "inputs": [
        {
          "internalType": "uint256",
          "name": "",
          "type": "uint256"
        }
      ],
      "name": "uri",
      "outputs": [
        {
          "internalType": "string",
          "name": "",
          "type": "string"
        }
      ],
      "stateMutability": "view",
      "type": "function"
    }
  ],
  "transactionHash": "0x6befa47c6bbd31e962d01519a10411c3feded8048f0d376038806a2c4782cb5b",
  "args": [],
  "numDeployments": 1,
  "solcInputHash": "a147769c31f46cfe50e7fc8b209973b6",
  "bytecode": "0x60806040523480156200001157600080fd5b5060405180606001604052806037815260200162005eaa60379139806200003e81620001a160201b60201c565b506000600560006101000a81548160ff0219169083151502179055506200007e6000801b62000072620001bd60201b60201c565b620001c560201b60201c565b620000bf7f9f2df0fed2c77648de5860a4cc508cd0818c85b8b8a1ab4ceeef8d981c8956a6620000b3620001bd60201b60201c565b620001c560201b60201c565b620001007f65d7a28e3265b37a6474929f336521b332c1681b933f6cb9f3376673440d862a620000f4620001bd60201b60201c565b620001c560201b60201c565b506200012d336000670de0b6b3a764000060405180602001604052806000815250620001db60201b60201c565b620001513360018060405180602001604052806000815250620001db60201b60201c565b62000176336002600560405180602001604052806000815250620001db60201b60201c565b6200019b336003600a60405180602001604052806000815250620001db60201b60201c565b620011c7565b8060049080519060200190620001b9929190620009aa565b5050565b600033905090565b620001d78282620003c460201b60201c565b5050565b600073ffffffffffffffffffffffffffffffffffffffff168473ffffffffffffffffffffffffffffffffffffffff1614156200024e576040517f08c379a0000000000000000000000000000000000000000000000000000000008152600401620002459062000ae1565b60405180910390fd5b600062000260620001bd60201b60201c565b9050600062000275856200040c60201b60201c565b905060006200028a856200040c60201b60201c565b9050620002a3836000898585896200048d60201b60201c565b846002600088815260200190815260200160002060008973ffffffffffffffffffffffffffffffffffffffff1673ffffffffffffffffffffffffffffffffffffffff168152602001908152602001600020600082825462000305919062000b3c565b925050819055508673ffffffffffffffffffffffffffffffffffffffff16600073ffffffffffffffffffffffffffffffffffffffff168473ffffffffffffffffffffffffffffffffffffffff167fc3d58168c5ae7397731d063d5bbf3d657854427343f4c083240f7aacaa2d0f6289896040516200038592919062000baa565b60405180910390a4620003a483600089858589620004b060201b60201c565b620003bb83600089898989620004b860201b60201c565b50505050505050565b620003db8282620006c260201b62000f611760201c565b620004078160016000858152602001908152602001600020620007b360201b620010411790919060201c565b505050565b60606000600167ffffffffffffffff8111156200042e576200042d62000bd7565b5b6040519080825280602002602001820160405280156200045d5781602001602082028036833780820191505090505b509050828160008151811062000478576200047762000c06565b5b60200260200101818152505080915050919050565b620004a8868686868686620007eb60201b620010711760201c565b505050505050565b505050505050565b620004e48473ffffffffffffffffffffffffffffffffffffffff166200086160201b620010cf1760201c565b15620006ba578373ffffffffffffffffffffffffffffffffffffffff1663f23a6e6187878686866040518663ffffffff1660e01b81526004016200052d95949392919062000d1e565b602060405180830381600087803b1580156200054857600080fd5b505af19250505080156200057c57506040513d601f19601f8201168201806040525081019062000579919062000dee565b60015b6200062e576200058b62000e2d565b806308c379a01415620005ef5750620005a362000e88565b80620005b05750620005f1565b806040517f08c379a0000000000000000000000000000000000000000000000000000000008152600401620005e6919062000f76565b60405180910390fd5b505b6040517f08c379a0000000000000000000000000000000000000000000000000000000008152600401620006259062001010565b60405180910390fd5b63f23a6e6160e01b7bffffffffffffffffffffffffffffffffffffffffffffffffffffffff1916817bffffffffffffffffffffffffffffffffffffffffffffffffffffffff191614620006b8576040517f08c379a0000000000000000000000000000000000000000000000000000000008152600401620006af90620010a8565b60405180910390fd5b505b505050505050565b620006d482826200088460201b60201c565b620007af57600160008084815260200190815260200160002060000160008373ffffffffffffffffffffffffffffffffffffffff1673ffffffffffffffffffffffffffffffffffffffff16815260200190815260200160002060006101000a81548160ff02191690831515021790555062000754620001bd60201b60201c565b73ffffffffffffffffffffffffffffffffffffffff168173ffffffffffffffffffffffffffffffffffffffff16837f2f8788117e7eff1d82e926ec794901d17c78024a50270940304540a733656f0d60405160405180910390a45b5050565b6000620007e3836000018373ffffffffffffffffffffffffffffffffffffffff1660001b620008ee60201b60201c565b905092915050565b620008068686868686866200096860201b620010f21760201c565b620008166200097060201b60201c565b1562000859576040517f08c379a0000000000000000000000000000000000000000000000000000000008152600401620008509062001140565b60405180910390fd5b505050505050565b6000808273ffffffffffffffffffffffffffffffffffffffff163b119050919050565b600080600084815260200190815260200160002060000160008373ffffffffffffffffffffffffffffffffffffffff1673ffffffffffffffffffffffffffffffffffffffff16815260200190815260200160002060009054906101000a900460ff16905092915050565b60006200090283836200098760201b60201c565b6200095d57826000018290806001815401808255809150506001900390600052602060002001600090919091909150558260000180549050836001016000848152602001908152602001600020819055506001905062000962565b600090505b92915050565b505050505050565b6000600560009054906101000a900460ff16905090565b600080836001016000848152602001908152602001600020541415905092915050565b828054620009b89062001191565b90600052602060002090601f016020900481019282620009dc576000855562000a28565b82601f10620009f757805160ff191683800117855562000a28565b8280016001018555821562000a28579182015b8281111562000a2757825182559160200191906001019062000a0a565b5b50905062000a37919062000a3b565b5090565b5b8082111562000a5657600081600090555060010162000a3c565b5090565b600082825260208201905092915050565b7f455243313135353a206d696e7420746f20746865207a65726f2061646472657360008201527f7300000000000000000000000000000000000000000000000000000000000000602082015250565b600062000ac960218362000a5a565b915062000ad68262000a6b565b604082019050919050565b6000602082019050818103600083015262000afc8162000aba565b9050919050565b6000819050919050565b7f4e487b7100000000000000000000000000000000000000000000000000000000600052601160045260246000fd5b600062000b498262000b03565b915062000b568362000b03565b9250827fffffffffffffffffffffffffffffffffffffffffffffffffffffffffffffffff0382111562000b8e5762000b8d62000b0d565b5b828201905092915050565b62000ba48162000b03565b82525050565b600060408201905062000bc1600083018562000b99565b62000bd0602083018462000b99565b9392505050565b7f4e487b7100000000000000000000000000000000000000000000000000000000600052604160045260246000fd5b7f4e487b7100000000000000000000000000000000000000000000000000000000600052603260045260246000fd5b600073ffffffffffffffffffffffffffffffffffffffff82169050919050565b600062000c628262000c35565b9050919050565b62000c748162000c55565b82525050565b600081519050919050565b600082825260208201905092915050565b60005b8381101562000cb657808201518184015260208101905062000c99565b8381111562000cc6576000848401525b50505050565b6000601f19601f8301169050919050565b600062000cea8262000c7a565b62000cf6818562000c85565b935062000d0881856020860162000c96565b62000d138162000ccc565b840191505092915050565b600060a08201905062000d35600083018862000c69565b62000d44602083018762000c69565b62000d53604083018662000b99565b62000d62606083018562000b99565b818103608083015262000d76818462000cdd565b90509695505050505050565b6000604051905090565b600080fd5b60007fffffffff0000000000000000000000000000000000000000000000000000000082169050919050565b62000dc88162000d91565b811462000dd457600080fd5b50565b60008151905062000de88162000dbd565b92915050565b60006020828403121562000e075762000e0662000d8c565b5b600062000e178482850162000dd7565b91505092915050565b60008160e01c9050919050565b600060033d111562000e4f5760046000803e62000e4c60005162000e20565b90505b90565b62000e5d8262000ccc565b810181811067ffffffffffffffff8211171562000e7f5762000e7e62000bd7565b5b80604052505050565b600060443d101562000e9a5762000f27565b62000ea462000d82565b60043d036004823e80513d602482011167ffffffffffffffff8211171562000ece57505062000f27565b808201805167ffffffffffffffff81111562000eee575050505062000f27565b80602083010160043d03850181111562000f0d57505050505062000f27565b62000f1e8260200185018662000e52565b82955050505050505b90565b600081519050919050565b600062000f428262000f2a565b62000f4e818562000a5a565b935062000f6081856020860162000c96565b62000f6b8162000ccc565b840191505092915050565b6000602082019050818103600083015262000f92818462000f35565b905092915050565b7f455243313135353a207472616e7366657220746f206e6f6e204552433131353560008201527f526563656976657220696d706c656d656e746572000000000000000000000000602082015250565b600062000ff860348362000a5a565b9150620010058262000f9a565b604082019050919050565b600060208201905081810360008301526200102b8162000fe9565b9050919050565b7f455243313135353a204552433131353552656365697665722072656a6563746560008201527f6420746f6b656e73000000000000000000000000000000000000000000000000602082015250565b60006200109060288362000a5a565b91506200109d8262001032565b604082019050919050565b60006020820190508181036000830152620010c38162001081565b9050919050565b7f455243313135355061757361626c653a20746f6b656e207472616e736665722060008201527f7768696c65207061757365640000000000000000000000000000000000000000602082015250565b600062001128602c8362000a5a565b91506200113582620010ca565b604082019050919050565b600060208201905081810360008301526200115b8162001119565b9050919050565b7f4e487b7100000000000000000000000000000000000000000000000000000000600052602260045260246000fd5b60006002820490506001821680620011aa57607f821691505b60208210811415620011c157620011c062001162565b5b50919050565b614cd380620011d76000396000f3fe608060405234801561001057600080fd5b50600436106101ce5760003560e01c8063731133e911610104578063ca15c873116100a2578063e952d34d11610071578063e952d34d14610519578063e985e9c514610537578063f242432a14610567578063f5298aca14610583576101ce565b8063ca15c87314610491578063d5391393146104c1578063d547741f146104df578063e63ab1e9146104fb576101ce565b806391d14854116100de57806391d1485414610409578063a217fddf14610439578063a22cb46514610457578063ad11476c14610473576101ce565b8063731133e9146103b35780638456cb59146103cf5780639010d07c146103d9576101ce565b80632f2ff15d1161017157806348f853ba1161014b57806348f853ba1461032b5780634e1273f4146103495780635c975abb146103795780636b20c45414610397576101ce565b80632f2ff15d146102e957806336568abe146103055780633f4ba83a14610321576101ce565b80630e89341c116101ad5780630e89341c146102515780631f7fdffa14610281578063248a9ca31461029d5780632eb2c2d6146102cd576101ce565b8062fdd58e146101d357806301ffc9a71461020357806302ed78a014610233575b600080fd5b6101ed60048036038101906101e8919061304c565b61059f565b6040516101fa919061309b565b60405180910390f35b61021d6004803603810190610218919061310e565b610669565b60405161022a9190613156565b60405180910390f35b61023b61067b565b604051610248919061309b565b60405180910390f35b61026b60048036038101906102669190613171565b610680565b6040516102789190613237565b60405180910390f35b61029b60048036038101906102969190613456565b610714565b005b6102b760048036038101906102b29190613547565b610796565b6040516102c49190613583565b60405180910390f35b6102e760048036038101906102e2919061359e565b6107b5565b005b61030360048036038101906102fe919061366d565b610856565b005b61031f600480360381019061031a919061366d565b610877565b005b6103296108fa565b005b610333610974565b604051610340919061309b565b60405180910390f35b610363600480360381019061035e9190613770565b610979565b60405161037091906138a6565b60405180910390f35b610381610a92565b60405161038e9190613156565b60405180910390f35b6103b160048036038101906103ac91906138c8565b610aa9565b005b6103cd60048036038101906103c89190613953565b610b46565b005b6103d7610bc8565b005b6103f360048036038101906103ee91906139d6565b610c42565b6040516104009190613a25565b60405180910390f35b610423600480360381019061041e919061366d565b610c71565b6040516104309190613156565b60405180910390f35b610441610cdb565b60405161044e9190613583565b60405180910390f35b610471600480360381019061046c9190613a6c565b610ce2565b005b61047b610cf8565b604051610488919061309b565b60405180910390f35b6104ab60048036038101906104a69190613547565b610cfd565b6040516104b8919061309b565b60405180910390f35b6104c9610d21565b6040516104d69190613583565b60405180910390f35b6104f960048036038101906104f4919061366d565b610d45565b005b610503610d66565b6040516105109190613583565b60405180910390f35b610521610d8a565b60405161052e919061309b565b60405180910390f35b610551600480360381019061054c9190613aac565b610d8f565b60405161055e9190613156565b60405180910390f35b610581600480360381019061057c9190613aec565b610e23565b005b61059d60048036038101906105989190613b83565b610ec4565b005b60008073ffffffffffffffffffffffffffffffffffffffff168373ffffffffffffffffffffffffffffffffffffffff161415610610576040517f08c379a000000000000000000000000000000000000000000000000000000000815260040161060790613c48565b60405180910390fd5b6002600083815260200190815260200160002060008473ffffffffffffffffffffffffffffffffffffffff1673ffffffffffffffffffffffffffffffffffffffff16815260200190815260200160002054905092915050565b6000610674826110fa565b9050919050565b600281565b60606004805461068f90613c97565b80601f01602080910402602001604051908101604052809291908181526020018280546106bb90613c97565b80156107085780601f106106dd57610100808354040283529160200191610708565b820191906000526020600020905b8154815290600101906020018083116106eb57829003601f168201915b50505050509050919050565b6107457f9f2df0fed2c77648de5860a4cc508cd0818c85b8b8a1ab4ceeef8d981c8956a66107406111dc565b610c71565b610784576040517f08c379a000000000000000000000000000000000000000000000000000000000815260040161077b90613d3b565b60405180910390fd5b610790848484846111e4565b50505050565b6000806000838152602001908152602001600020600101549050919050565b6107bd6111dc565b73ffffffffffffffffffffffffffffffffffffffff168573ffffffffffffffffffffffffffffffffffffffff1614806108035750610802856107fd6111dc565b610d8f565b5b610842576040517f08c379a000000000000000000000000000000000000000000000000000000000815260040161083990613dcd565b60405180910390fd5b61084f8585858585611412565b5050505050565b61085f82610796565b61086881611737565b610872838361174b565b505050565b61087f6111dc565b73ffffffffffffffffffffffffffffffffffffffff168173ffffffffffffffffffffffffffffffffffffffff16146108ec576040517f08c379a00000000000000000000000000000000000000000000000000000000081526004016108e390613e5f565b60405180910390fd5b6108f6828261177f565b5050565b61092b7f65d7a28e3265b37a6474929f336521b332c1681b933f6cb9f3376673440d862a6109266111dc565b610c71565b61096a576040517f08c379a000000000000000000000000000000000000000000000000000000000815260040161096190613ef1565b60405180910390fd5b6109726117b3565b565b600181565b606081518351146109bf576040517f08c379a00000000000000000000000000000000000000000000000000000000081526004016109b690613f83565b60405180910390fd5b6000835167ffffffffffffffff8111156109dc576109db61325e565b5b604051908082528060200260200182016040528015610a0a5781602001602082028036833780820191505090505b50905060005b8451811015610a8757610a57858281518110610a2f57610a2e613fa3565b5b6020026020010151858381518110610a4a57610a49613fa3565b5b602002602001015161059f565b828281518110610a6a57610a69613fa3565b5b60200260200101818152505080610a8090614001565b9050610a10565b508091505092915050565b6000600560009054906101000a900460ff16905090565b610ab16111dc565b73ffffffffffffffffffffffffffffffffffffffff168373ffffffffffffffffffffffffffffffffffffffff161480610af75750610af683610af16111dc565b610d8f565b5b610b36576040517f08c379a0000000000000000000000000000000000000000000000000000000008152600401610b2d90613dcd565b60405180910390fd5b610b41838383611816565b505050565b610b777f9f2df0fed2c77648de5860a4cc508cd0818c85b8b8a1ab4ceeef8d981c8956a6610b726111dc565b610c71565b610bb6576040517f08c379a0000000000000000000000000000000000000000000000000000000008152600401610bad90613d3b565b60405180910390fd5b610bc284848484611ae7565b50505050565b610bf97f65d7a28e3265b37a6474929f336521b332c1681b933f6cb9f3376673440d862a610bf46111dc565b610c71565b610c38576040517f08c379a0000000000000000000000000000000000000000000000000000000008152600401610c2f906140bc565b60405180910390fd5b610c40611c99565b565b6000610c698260016000868152602001908152602001600020611cfc90919063ffffffff16565b905092915050565b600080600084815260200190815260200160002060000160008373ffffffffffffffffffffffffffffffffffffffff1673ffffffffffffffffffffffffffffffffffffffff16815260200190815260200160002060009054906101000a900460ff16905092915050565b6000801b81565b610cf4610ced6111dc565b8383611d16565b5050565b600381565b6000610d1a60016000848152602001908152602001600020611e83565b9050919050565b7f9f2df0fed2c77648de5860a4cc508cd0818c85b8b8a1ab4ceeef8d981c8956a681565b610d4e82610796565b610d5781611737565b610d61838361177f565b505050565b7f65d7a28e3265b37a6474929f336521b332c1681b933f6cb9f3376673440d862a81565b600081565b6000600360008473ffffffffffffffffffffffffffffffffffffffff1673ffffffffffffffffffffffffffffffffffffffff16815260200190815260200160002060008373ffffffffffffffffffffffffffffffffffffffff1673ffffffffffffffffffffffffffffffffffffffff16815260200190815260200160002060009054906101000a900460ff16905092915050565b610e2b6111dc565b73ffffffffffffffffffffffffffffffffffffffff168573ffffffffffffffffffffffffffffffffffffffff161480610e715750610e7085610e6b6111dc565b610d8f565b5b610eb0576040517f08c379a0000000000000000000000000000000000000000000000000000000008152600401610ea790613dcd565b60405180910390fd5b610ebd8585858585611e98565b5050505050565b610ecc6111dc565b73ffffffffffffffffffffffffffffffffffffffff168373ffffffffffffffffffffffffffffffffffffffff161480610f125750610f1183610f0c6111dc565b610d8f565b5b610f51576040517f08c379a0000000000000000000000000000000000000000000000000000000008152600401610f4890613dcd565b60405180910390fd5b610f5c838383612137565b505050565b610f6b8282610c71565b61103d57600160008084815260200190815260200160002060000160008373ffffffffffffffffffffffffffffffffffffffff1673ffffffffffffffffffffffffffffffffffffffff16815260200190815260200160002060006101000a81548160ff021916908315150217905550610fe26111dc565b73ffffffffffffffffffffffffffffffffffffffff168173ffffffffffffffffffffffffffffffffffffffff16837f2f8788117e7eff1d82e926ec794901d17c78024a50270940304540a733656f0d60405160405180910390a45b5050565b6000611069836000018373ffffffffffffffffffffffffffffffffffffffff1660001b612380565b905092915050565b61107f8686868686866110f2565b611087610a92565b156110c7576040517f08c379a00000000000000000000000000000000000000000000000000000000081526004016110be9061414e565b60405180910390fd5b505050505050565b6000808273ffffffffffffffffffffffffffffffffffffffff163b119050919050565b505050505050565b60007fd9b67a26000000000000000000000000000000000000000000000000000000007bffffffffffffffffffffffffffffffffffffffffffffffffffffffff1916827bffffffffffffffffffffffffffffffffffffffffffffffffffffffff191614806111c557507f0e89341c000000000000000000000000000000000000000000000000000000007bffffffffffffffffffffffffffffffffffffffffffffffffffffffff1916827bffffffffffffffffffffffffffffffffffffffffffffffffffffffff1916145b806111d557506111d4826123f0565b5b9050919050565b600033905090565b600073ffffffffffffffffffffffffffffffffffffffff168473ffffffffffffffffffffffffffffffffffffffff161415611254576040517f08c379a000000000000000000000000000000000000000000000000000000000815260040161124b906141e0565b60405180910390fd5b8151835114611298576040517f08c379a000000000000000000000000000000000000000000000000000000000815260040161128f90614272565b60405180910390fd5b60006112a26111dc565b90506112b38160008787878761246a565b60005b845181101561136d578381815181106112d2576112d1613fa3565b5b6020026020010151600260008784815181106112f1576112f0613fa3565b5b6020026020010151815260200190815260200160002060008873ffffffffffffffffffffffffffffffffffffffff1673ffffffffffffffffffffffffffffffffffffffff16815260200190815260200160002060008282546113539190614292565b92505081905550808061136590614001565b9150506112b6565b508473ffffffffffffffffffffffffffffffffffffffff16600073ffffffffffffffffffffffffffffffffffffffff168273ffffffffffffffffffffffffffffffffffffffff167f4a39dc06d4c0dbc64b70af90fd698a233a518aa5d07e595d983b8c0526c8f7fb87876040516113e59291906142e8565b60405180910390a46113fc81600087878787612480565b61140b81600087878787612488565b5050505050565b8151835114611456576040517f08c379a000000000000000000000000000000000000000000000000000000000815260040161144d90614272565b60405180910390fd5b600073ffffffffffffffffffffffffffffffffffffffff168473ffffffffffffffffffffffffffffffffffffffff1614156114c6576040517f08c379a00000000000000000000000000000000000000000000000000000000081526004016114bd90614391565b60405180910390fd5b60006114d06111dc565b90506114e081878787878761246a565b60005b845181101561169457600085828151811061150157611500613fa3565b5b6020026020010151905060008583815181106115205761151f613fa3565b5b6020026020010151905060006002600084815260200190815260200160002060008b73ffffffffffffffffffffffffffffffffffffffff1673ffffffffffffffffffffffffffffffffffffffff168152602001908152602001600020549050818110156115c2576040517f08c379a00000000000000000000000000000000000000000000000000000000081526004016115b990614423565b60405180910390fd5b8181036002600085815260200190815260200160002060008c73ffffffffffffffffffffffffffffffffffffffff1673ffffffffffffffffffffffffffffffffffffffff16815260200190815260200160002081905550816002600085815260200190815260200160002060008b73ffffffffffffffffffffffffffffffffffffffff1673ffffffffffffffffffffffffffffffffffffffff16815260200190815260200160002060008282546116799190614292565b925050819055505050508061168d90614001565b90506114e3565b508473ffffffffffffffffffffffffffffffffffffffff168673ffffffffffffffffffffffffffffffffffffffff168273ffffffffffffffffffffffffffffffffffffffff167f4a39dc06d4c0dbc64b70af90fd698a233a518aa5d07e595d983b8c0526c8f7fb878760405161170b9291906142e8565b60405180910390a4611721818787878787612480565b61172f818787878787612488565b505050505050565b611748816117436111dc565b61266f565b50565b6117558282610f61565b61177a816001600085815260200190815260200160002061104190919063ffffffff16565b505050565b611789828261270c565b6117ae81600160008581526020019081526020016000206127ed90919063ffffffff16565b505050565b6117bb61281d565b6000600560006101000a81548160ff0219169083151502179055507f5db9ee0a495bf2e6ff9c91a7834c1ba4fdd244a5e8aa4e537bd38aeae4b073aa6117ff6111dc565b60405161180c9190613a25565b60405180910390a1565b600073ffffffffffffffffffffffffffffffffffffffff168373ffffffffffffffffffffffffffffffffffffffff161415611886576040517f08c379a000000000000000000000000000000000000000000000000000000000815260040161187d906144b5565b60405180910390fd5b80518251146118ca576040517f08c379a00000000000000000000000000000000000000000000000000000000081526004016118c190614272565b60405180910390fd5b60006118d46111dc565b90506118f48185600086866040518060200160405280600081525061246a565b60005b8351811015611a4357600084828151811061191557611914613fa3565b5b60200260200101519050600084838151811061193457611933613fa3565b5b6020026020010151905060006002600084815260200190815260200160002060008973ffffffffffffffffffffffffffffffffffffffff1673ffffffffffffffffffffffffffffffffffffffff168152602001908152602001600020549050818110156119d6576040517f08c379a00000000000000000000000000000000000000000000000000000000081526004016119cd90614547565b60405180910390fd5b8181036002600085815260200190815260200160002060008a73ffffffffffffffffffffffffffffffffffffffff1673ffffffffffffffffffffffffffffffffffffffff168152602001908152602001600020819055505050508080611a3b90614001565b9150506118f7565b50600073ffffffffffffffffffffffffffffffffffffffff168473ffffffffffffffffffffffffffffffffffffffff168273ffffffffffffffffffffffffffffffffffffffff167f4a39dc06d4c0dbc64b70af90fd698a233a518aa5d07e595d983b8c0526c8f7fb8686604051611abb9291906142e8565b60405180910390a4611ae181856000868660405180602001604052806000815250612480565b50505050565b600073ffffffffffffffffffffffffffffffffffffffff168473ffffffffffffffffffffffffffffffffffffffff161415611b57576040517f08c379a0000000000000000000000000000000000000000000000000000000008152600401611b4e906141e0565b60405180910390fd5b6000611b616111dc565b90506000611b6e85612866565b90506000611b7b85612866565b9050611b8c8360008985858961246a565b846002600088815260200190815260200160002060008973ffffffffffffffffffffffffffffffffffffffff1673ffffffffffffffffffffffffffffffffffffffff1681526020019081526020016000206000828254611bec9190614292565b925050819055508673ffffffffffffffffffffffffffffffffffffffff16600073ffffffffffffffffffffffffffffffffffffffff168473ffffffffffffffffffffffffffffffffffffffff167fc3d58168c5ae7397731d063d5bbf3d657854427343f4c083240f7aacaa2d0f628989604051611c6a929190614567565b60405180910390a4611c8183600089858589612480565b611c90836000898989896128e0565b50505050505050565b611ca1612ac7565b6001600560006101000a81548160ff0219169083151502179055507f62e78cea01bee320cd4e420270b5ea74000d11b0c9f74754ebdbfc544b05a258611ce56111dc565b604051611cf29190613a25565b60405180910390a1565b6000611d0b8360000183612b11565b60001c905092915050565b8173ffffffffffffffffffffffffffffffffffffffff168373ffffffffffffffffffffffffffffffffffffffff161415611d85576040517f08c379a0000000000000000000000000000000000000000000000000000000008152600401611d7c90614602565b60405180910390fd5b80600360008573ffffffffffffffffffffffffffffffffffffffff1673ffffffffffffffffffffffffffffffffffffffff16815260200190815260200160002060008473ffffffffffffffffffffffffffffffffffffffff1673ffffffffffffffffffffffffffffffffffffffff16815260200190815260200160002060006101000a81548160ff0219169083151502179055508173ffffffffffffffffffffffffffffffffffffffff168373ffffffffffffffffffffffffffffffffffffffff167f17307eab39ab6107e8899845ad3d59bd9653f200f220920489ca2b5937696c3183604051611e769190613156565b60405180910390a3505050565b6000611e9182600001612b3c565b9050919050565b600073ffffffffffffffffffffffffffffffffffffffff168473ffffffffffffffffffffffffffffffffffffffff161415611f08576040517f08c379a0000000000000000000000000000000000000000000000000000000008152600401611eff90614391565b60405180910390fd5b6000611f126111dc565b90506000611f1f85612866565b90506000611f2c85612866565b9050611f3c83898985858961246a565b60006002600088815260200190815260200160002060008a73ffffffffffffffffffffffffffffffffffffffff1673ffffffffffffffffffffffffffffffffffffffff16815260200190815260200160002054905085811015611fd4576040517f08c379a0000000000000000000000000000000000000000000000000000000008152600401611fcb90614423565b60405180910390fd5b8581036002600089815260200190815260200160002060008b73ffffffffffffffffffffffffffffffffffffffff1673ffffffffffffffffffffffffffffffffffffffff16815260200190815260200160002081905550856002600089815260200190815260200160002060008a73ffffffffffffffffffffffffffffffffffffffff1673ffffffffffffffffffffffffffffffffffffffff168152602001908152602001600020600082825461208b9190614292565b925050819055508773ffffffffffffffffffffffffffffffffffffffff168973ffffffffffffffffffffffffffffffffffffffff168573ffffffffffffffffffffffffffffffffffffffff167fc3d58168c5ae7397731d063d5bbf3d657854427343f4c083240f7aacaa2d0f628a8a604051612108929190614567565b60405180910390a461211e848a8a86868a612480565b61212c848a8a8a8a8a6128e0565b505050505050505050565b600073ffffffffffffffffffffffffffffffffffffffff168373ffffffffffffffffffffffffffffffffffffffff1614156121a7576040517f08c379a000000000000000000000000000000000000000000000000000000000815260040161219e906144b5565b60405180910390fd5b60006121b16111dc565b905060006121be84612866565b905060006121cb84612866565b90506121eb8387600085856040518060200160405280600081525061246a565b60006002600087815260200190815260200160002060008873ffffffffffffffffffffffffffffffffffffffff1673ffffffffffffffffffffffffffffffffffffffff16815260200190815260200160002054905084811015612283576040517f08c379a000000000000000000000000000000000000000000000000000000000815260040161227a90614547565b60405180910390fd5b8481036002600088815260200190815260200160002060008973ffffffffffffffffffffffffffffffffffffffff1673ffffffffffffffffffffffffffffffffffffffff16815260200190815260200160002081905550600073ffffffffffffffffffffffffffffffffffffffff168773ffffffffffffffffffffffffffffffffffffffff168573ffffffffffffffffffffffffffffffffffffffff167fc3d58168c5ae7397731d063d5bbf3d657854427343f4c083240f7aacaa2d0f628989604051612351929190614567565b60405180910390a461237784886000868660405180602001604052806000815250612480565b50505050505050565b600061238c8383612b4d565b6123e55782600001829080600181540180825580915050600190039060005260206000200160009091909190915055826000018054905083600101600084815260200190815260200160002081905550600190506123ea565b600090505b92915050565b60007f5a05180f000000000000000000000000000000000000000000000000000000007bffffffffffffffffffffffffffffffffffffffffffffffffffffffff1916827bffffffffffffffffffffffffffffffffffffffffffffffffffffffff19161480612463575061246282612b70565b5b9050919050565b612478868686868686611071565b505050505050565b505050505050565b6124a78473ffffffffffffffffffffffffffffffffffffffff166110cf565b15612667578373ffffffffffffffffffffffffffffffffffffffff1663bc197c8187878686866040518663ffffffff1660e01b81526004016124ed959493929190614677565b602060405180830381600087803b15801561250757600080fd5b505af192505050801561253857506040513d601f19601f8201168201806040525081019061253591906146f4565b60015b6125de5761254461472e565b806308c379a014156125a15750612559614750565b8061256457506125a3565b806040517f08c379a00000000000000000000000000000000000000000000000000000000081526004016125989190613237565b60405180910390fd5b505b6040517f08c379a00000000000000000000000000000000000000000000000000000000081526004016125d590614858565b60405180910390fd5b63bc197c8160e01b7bffffffffffffffffffffffffffffffffffffffffffffffffffffffff1916817bffffffffffffffffffffffffffffffffffffffffffffffffffffffff191614612665576040517f08c379a000000000000000000000000000000000000000000000000000000000815260040161265c906148ea565b60405180910390fd5b505b505050505050565b6126798282610c71565b6127085761269e8173ffffffffffffffffffffffffffffffffffffffff166014612bea565b6126ac8360001c6020612bea565b6040516020016126bd9291906149de565b6040516020818303038152906040526040517f08c379a00000000000000000000000000000000000000000000000000000000081526004016126ff9190613237565b60405180910390fd5b5050565b6127168282610c71565b156127e957600080600084815260200190815260200160002060000160008373ffffffffffffffffffffffffffffffffffffffff1673ffffffffffffffffffffffffffffffffffffffff16815260200190815260200160002060006101000a81548160ff02191690831515021790555061278e6111dc565b73ffffffffffffffffffffffffffffffffffffffff168173ffffffffffffffffffffffffffffffffffffffff16837ff6391f5c32d9c69d2a47ea670b442974b53935d1edc7fd64eb21e047a839171b60405160405180910390a45b5050565b6000612815836000018373ffffffffffffffffffffffffffffffffffffffff1660001b612e26565b905092915050565b612825610a92565b612864576040517f08c379a000000000000000000000000000000000000000000000000000000000815260040161285b90614a64565b60405180910390fd5b565b60606000600167ffffffffffffffff8111156128855761288461325e565b5b6040519080825280602002602001820160405280156128b35781602001602082028036833780820191505090505b50905082816000815181106128cb576128ca613fa3565b5b60200260200101818152505080915050919050565b6128ff8473ffffffffffffffffffffffffffffffffffffffff166110cf565b15612abf578373ffffffffffffffffffffffffffffffffffffffff1663f23a6e6187878686866040518663ffffffff1660e01b8152600401612945959493929190614a84565b602060405180830381600087803b15801561295f57600080fd5b505af192505050801561299057506040513d601f19601f8201168201806040525081019061298d91906146f4565b60015b612a365761299c61472e565b806308c379a014156129f957506129b1614750565b806129bc57506129fb565b806040517f08c379a00000000000000000000000000000000000000000000000000000000081526004016129f09190613237565b60405180910390fd5b505b6040517f08c379a0000000000000000000000000000000000000000000000000000000008152600401612a2d90614858565b60405180910390fd5b63f23a6e6160e01b7bffffffffffffffffffffffffffffffffffffffffffffffffffffffff1916817bffffffffffffffffffffffffffffffffffffffffffffffffffffffff191614612abd576040517f08c379a0000000000000000000000000000000000000000000000000000000008152600401612ab4906148ea565b60405180910390fd5b505b505050505050565b612acf610a92565b15612b0f576040517f08c379a0000000000000000000000000000000000000000000000000000000008152600401612b0690614b2a565b60405180910390fd5b565b6000826000018281548110612b2957612b28613fa3565b5b9060005260206000200154905092915050565b600081600001805490509050919050565b600080836001016000848152602001908152602001600020541415905092915050565b60007f7965db0b000000000000000000000000000000000000000000000000000000007bffffffffffffffffffffffffffffffffffffffffffffffffffffffff1916827bffffffffffffffffffffffffffffffffffffffffffffffffffffffff19161480612be35750612be282612f3a565b5b9050919050565b606060006002836002612bfd9190614b4a565b612c079190614292565b67ffffffffffffffff811115612c2057612c1f61325e565b5b6040519080825280601f01601f191660200182016040528015612c525781602001600182028036833780820191505090505b5090507f300000000000000000000000000000000000000000000000000000000000000081600081518110612c8a57612c89613fa3565b5b60200101907effffffffffffffffffffffffffffffffffffffffffffffffffffffffffffff1916908160001a9053507f780000000000000000000000000000000000000000000000000000000000000081600181518110612cee57612ced613fa3565b5b60200101907effffffffffffffffffffffffffffffffffffffffffffffffffffffffffffff1916908160001a90535060006001846002612d2e9190614b4a565b612d389190614292565b90505b6001811115612dd8577f3031323334353637383961626364656600000000000000000000000000000000600f861660108110612d7a57612d79613fa3565b5b1a60f81b828281518110612d9157612d90613fa3565b5b60200101907effffffffffffffffffffffffffffffffffffffffffffffffffffffffffffff1916908160001a905350600485901c945080612dd190614ba4565b9050612d3b565b5060008414612e1c576040517f08c379a0000000000000000000000000000000000000000000000000000000008152600401612e1390614c1a565b60405180910390fd5b8091505092915050565b60008083600101600084815260200190815260200160002054905060008114612f2e576000600182612e589190614c3a565b9050600060018660000180549050612e709190614c3a565b9050818114612edf576000866000018281548110612e9157612e90613fa3565b5b9060005260206000200154905080876000018481548110612eb557612eb4613fa3565b5b90600052602060002001819055508387600101600083815260200190815260200160002081905550505b85600001805480612ef357612ef2614c6e565b5b600190038181906000526020600020016000905590558560010160008681526020019081526020016000206000905560019350505050612f34565b60009150505b92915050565b60007f01ffc9a7000000000000000000000000000000000000000000000000000000007bffffffffffffffffffffffffffffffffffffffffffffffffffffffff1916827bffffffffffffffffffffffffffffffffffffffffffffffffffffffff1916149050919050565b6000604051905090565b600080fd5b600080fd5b600073ffffffffffffffffffffffffffffffffffffffff82169050919050565b6000612fe382612fb8565b9050919050565b612ff381612fd8565b8114612ffe57600080fd5b50565b60008135905061301081612fea565b92915050565b6000819050919050565b61302981613016565b811461303457600080fd5b50565b60008135905061304681613020565b92915050565b6000806040838503121561306357613062612fae565b5b600061307185828601613001565b925050602061308285828601613037565b9150509250929050565b61309581613016565b82525050565b60006020820190506130b0600083018461308c565b92915050565b60007fffffffff0000000000000000000000000000000000000000000000000000000082169050919050565b6130eb816130b6565b81146130f657600080fd5b50565b600081359050613108816130e2565b92915050565b60006020828403121561312457613123612fae565b5b6000613132848285016130f9565b91505092915050565b60008115159050919050565b6131508161313b565b82525050565b600060208201905061316b6000830184613147565b92915050565b60006020828403121561318757613186612fae565b5b600061319584828501613037565b91505092915050565b600081519050919050565b600082825260208201905092915050565b60005b838110156131d85780820151818401526020810190506131bd565b838111156131e7576000848401525b50505050565b6000601f19601f8301169050919050565b60006132098261319e565b61321381856131a9565b93506132238185602086016131ba565b61322c816131ed565b840191505092915050565b6000602082019050818103600083015261325181846131fe565b905092915050565b600080fd5b7f4e487b7100000000000000000000000000000000000000000000000000000000600052604160045260246000fd5b613296826131ed565b810181811067ffffffffffffffff821117156132b5576132b461325e565b5b80604052505050565b60006132c8612fa4565b90506132d4828261328d565b919050565b600067ffffffffffffffff8211156132f4576132f361325e565b5b602082029050602081019050919050565b600080fd5b600061331d613318846132d9565b6132be565b905080838252602082019050602084028301858111156133405761333f613305565b5b835b8181101561336957806133558882613037565b845260208401935050602081019050613342565b5050509392505050565b600082601f83011261338857613387613259565b5b813561339884826020860161330a565b91505092915050565b600080fd5b600067ffffffffffffffff8211156133c1576133c061325e565b5b6133ca826131ed565b9050602081019050919050565b82818337600083830152505050565b60006133f96133f4846133a6565b6132be565b905082815260208101848484011115613415576134146133a1565b5b6134208482856133d7565b509392505050565b600082601f83011261343d5761343c613259565b5b813561344d8482602086016133e6565b91505092915050565b600080600080608085870312156134705761346f612fae565b5b600061347e87828801613001565b945050602085013567ffffffffffffffff81111561349f5761349e612fb3565b5b6134ab87828801613373565b935050604085013567ffffffffffffffff8111156134cc576134cb612fb3565b5b6134d887828801613373565b925050606085013567ffffffffffffffff8111156134f9576134f8612fb3565b5b61350587828801613428565b91505092959194509250565b6000819050919050565b61352481613511565b811461352f57600080fd5b50565b6000813590506135418161351b565b92915050565b60006020828403121561355d5761355c612fae565b5b600061356b84828501613532565b91505092915050565b61357d81613511565b82525050565b60006020820190506135986000830184613574565b92915050565b600080600080600060a086880312156135ba576135b9612fae565b5b60006135c888828901613001565b95505060206135d988828901613001565b945050604086013567ffffffffffffffff8111156135fa576135f9612fb3565b5b61360688828901613373565b935050606086013567ffffffffffffffff81111561362757613626612fb3565b5b61363388828901613373565b925050608086013567ffffffffffffffff81111561365457613653612fb3565b5b61366088828901613428565b9150509295509295909350565b6000806040838503121561368457613683612fae565b5b600061369285828601613532565b92505060206136a385828601613001565b9150509250929050565b600067ffffffffffffffff8211156136c8576136c761325e565b5b602082029050602081019050919050565b60006136ec6136e7846136ad565b6132be565b9050808382526020820190506020840283018581111561370f5761370e613305565b5b835b8181101561373857806137248882613001565b845260208401935050602081019050613711565b5050509392505050565b600082601f83011261375757613756613259565b5b81356137678482602086016136d9565b91505092915050565b6000806040838503121561378757613786612fae565b5b600083013567ffffffffffffffff8111156137a5576137a4612fb3565b5b6137b185828601613742565b925050602083013567ffffffffffffffff8111156137d2576137d1612fb3565b5b6137de85828601613373565b9150509250929050565b600081519050919050565b600082825260208201905092915050565b6000819050602082019050919050565b61381d81613016565b82525050565b600061382f8383613814565b60208301905092915050565b6000602082019050919050565b6000613853826137e8565b61385d81856137f3565b935061386883613804565b8060005b838110156138995781516138808882613823565b975061388b8361383b565b92505060018101905061386c565b5085935050505092915050565b600060208201905081810360008301526138c08184613848565b905092915050565b6000806000606084860312156138e1576138e0612fae565b5b60006138ef86828701613001565b935050602084013567ffffffffffffffff8111156139105761390f612fb3565b5b61391c86828701613373565b925050604084013567ffffffffffffffff81111561393d5761393c612fb3565b5b61394986828701613373565b9150509250925092565b6000806000806080858703121561396d5761396c612fae565b5b600061397b87828801613001565b945050602061398c87828801613037565b935050604061399d87828801613037565b925050606085013567ffffffffffffffff8111156139be576139bd612fb3565b5b6139ca87828801613428565b91505092959194509250565b600080604083850312156139ed576139ec612fae565b5b60006139fb85828601613532565b9250506020613a0c85828601613037565b9150509250929050565b613a1f81612fd8565b82525050565b6000602082019050613a3a6000830184613a16565b92915050565b613a498161313b565b8114613a5457600080fd5b50565b600081359050613a6681613a40565b92915050565b60008060408385031215613a8357613a82612fae565b5b6000613a9185828601613001565b9250506020613aa285828601613a57565b9150509250929050565b60008060408385031215613ac357613ac2612fae565b5b6000613ad185828601613001565b9250506020613ae285828601613001565b9150509250929050565b600080600080600060a08688031215613b0857613b07612fae565b5b6000613b1688828901613001565b9550506020613b2788828901613001565b9450506040613b3888828901613037565b9350506060613b4988828901613037565b925050608086013567ffffffffffffffff811115613b6a57613b69612fb3565b5b613b7688828901613428565b9150509295509295909350565b600080600060608486031215613b9c57613b9b612fae565b5b6000613baa86828701613001565b9350506020613bbb86828701613037565b9250506040613bcc86828701613037565b9150509250925092565b7f455243313135353a2061646472657373207a65726f206973206e6f742061207660008201527f616c6964206f776e657200000000000000000000000000000000000000000000602082015250565b6000613c32602a836131a9565b9150613c3d82613bd6565b604082019050919050565b60006020820190508181036000830152613c6181613c25565b9050919050565b7f4e487b7100000000000000000000000000000000000000000000000000000000600052602260045260246000fd5b60006002820490506001821680613caf57607f821691505b60208210811415613cc357613cc2613c68565b5b50919050565b7f455243313135355072657365744d696e7465725061757365723a206d7573742060008201527f68617665206d696e74657220726f6c6520746f206d696e740000000000000000602082015250565b6000613d256038836131a9565b9150613d3082613cc9565b604082019050919050565b60006020820190508181036000830152613d5481613d18565b9050919050565b7f455243313135353a2063616c6c6572206973206e6f7420746f6b656e206f776e60008201527f6572206e6f7220617070726f7665640000000000000000000000000000000000602082015250565b6000613db7602f836131a9565b9150613dc282613d5b565b604082019050919050565b60006020820190508181036000830152613de681613daa565b9050919050565b7f416363657373436f6e74726f6c3a2063616e206f6e6c792072656e6f756e636560008201527f20726f6c657320666f722073656c660000000000000000000000000000000000602082015250565b6000613e49602f836131a9565b9150613e5482613ded565b604082019050919050565b60006020820190508181036000830152613e7881613e3c565b9050919050565b7f455243313135355072657365744d696e7465725061757365723a206d7573742060008201527f686176652070617573657220726f6c6520746f20756e70617573650000000000602082015250565b6000613edb603b836131a9565b9150613ee682613e7f565b604082019050919050565b60006020820190508181036000830152613f0a81613ece565b9050919050565b7f455243313135353a206163636f756e747320616e6420696473206c656e67746860008201527f206d69736d617463680000000000000000000000000000000000000000000000602082015250565b6000613f6d6029836131a9565b9150613f7882613f11565b604082019050919050565b60006020820190508181036000830152613f9c81613f60565b9050919050565b7f4e487b7100000000000000000000000000000000000000000000000000000000600052603260045260246000fd5b7f4e487b7100000000000000000000000000000000000000000000000000000000600052601160045260246000fd5b600061400c82613016565b91507fffffffffffffffffffffffffffffffffffffffffffffffffffffffffffffffff82141561403f5761403e613fd2565b5b600182019050919050565b7f455243313135355072657365744d696e7465725061757365723a206d7573742060008201527f686176652070617573657220726f6c6520746f20706175736500000000000000602082015250565b60006140a66039836131a9565b91506140b18261404a565b604082019050919050565b600060208201905081810360008301526140d581614099565b9050919050565b7f455243313135355061757361626c653a20746f6b656e207472616e736665722060008201527f7768696c65207061757365640000000000000000000000000000000000000000602082015250565b6000614138602c836131a9565b9150614143826140dc565b604082019050919050565b600060208201905081810360008301526141678161412b565b9050919050565b7f455243313135353a206d696e7420746f20746865207a65726f2061646472657360008201527f7300000000000000000000000000000000000000000000000000000000000000602082015250565b60006141ca6021836131a9565b91506141d58261416e565b604082019050919050565b600060208201905081810360008301526141f9816141bd565b9050919050565b7f455243313135353a2069647320616e6420616d6f756e7473206c656e6774682060008201527f6d69736d61746368000000000000000000000000000000000000000000000000602082015250565b600061425c6028836131a9565b915061426782614200565b604082019050919050565b6000602082019050818103600083015261428b8161424f565b9050919050565b600061429d82613016565b91506142a883613016565b9250827fffffffffffffffffffffffffffffffffffffffffffffffffffffffffffffffff038211156142dd576142dc613fd2565b5b828201905092915050565b600060408201905081810360008301526143028185613848565b905081810360208301526143168184613848565b90509392505050565b7f455243313135353a207472616e7366657220746f20746865207a65726f20616460008201527f6472657373000000000000000000000000000000000000000000000000000000602082015250565b600061437b6025836131a9565b91506143868261431f565b604082019050919050565b600060208201905081810360008301526143aa8161436e565b9050919050565b7f455243313135353a20696e73756666696369656e742062616c616e636520666f60008201527f72207472616e7366657200000000000000000000000000000000000000000000602082015250565b600061440d602a836131a9565b9150614418826143b1565b604082019050919050565b6000602082019050818103600083015261443c81614400565b9050919050565b7f455243313135353a206275726e2066726f6d20746865207a65726f206164647260008201527f6573730000000000000000000000000000000000000000000000000000000000602082015250565b600061449f6023836131a9565b91506144aa82614443565b604082019050919050565b600060208201905081810360008301526144ce81614492565b9050919050565b7f455243313135353a206275726e20616d6f756e7420657863656564732062616c60008201527f616e636500000000000000000000000000000000000000000000000000000000602082015250565b60006145316024836131a9565b915061453c826144d5565b604082019050919050565b6000602082019050818103600083015261456081614524565b9050919050565b600060408201905061457c600083018561308c565b614589602083018461308c565b9392505050565b7f455243313135353a2073657474696e6720617070726f76616c2073746174757360008201527f20666f722073656c660000000000000000000000000000000000000000000000602082015250565b60006145ec6029836131a9565b91506145f782614590565b604082019050919050565b6000602082019050818103600083015261461b816145df565b9050919050565b600081519050919050565b600082825260208201905092915050565b600061464982614622565b614653818561462d565b93506146638185602086016131ba565b61466c816131ed565b840191505092915050565b600060a08201905061468c6000830188613a16565b6146996020830187613a16565b81810360408301526146ab8186613848565b905081810360608301526146bf8185613848565b905081810360808301526146d3818461463e565b90509695505050505050565b6000815190506146ee816130e2565b92915050565b60006020828403121561470a57614709612fae565b5b6000614718848285016146df565b91505092915050565b60008160e01c9050919050565b600060033d111561474d5760046000803e61474a600051614721565b90505b90565b600060443d1015614760576147e3565b614768612fa4565b60043d036004823e80513d602482011167ffffffffffffffff821117156147905750506147e3565b808201805167ffffffffffffffff8111156147ae57505050506147e3565b80602083010160043d0385018111156147cb5750505050506147e3565b6147da8260200185018661328d565b82955050505050505b90565b7f455243313135353a207472616e7366657220746f206e6f6e204552433131353560008201527f526563656976657220696d706c656d656e746572000000000000000000000000602082015250565b60006148426034836131a9565b915061484d826147e6565b604082019050919050565b6000602082019050818103600083015261487181614835565b9050919050565b7f455243313135353a204552433131353552656365697665722072656a6563746560008201527f6420746f6b656e73000000000000000000000000000000000000000000000000602082015250565b60006148d46028836131a9565b91506148df82614878565b604082019050919050565b60006020820190508181036000830152614903816148c7565b9050919050565b600081905092915050565b7f416363657373436f6e74726f6c3a206163636f756e7420000000000000000000600082015250565b600061494b60178361490a565b915061495682614915565b601782019050919050565b600061496c8261319e565b614976818561490a565b93506149868185602086016131ba565b80840191505092915050565b7f206973206d697373696e6720726f6c6520000000000000000000000000000000600082015250565b60006149c860118361490a565b91506149d382614992565b601182019050919050565b60006149e98261493e565b91506149f58285614961565b9150614a00826149bb565b9150614a0c8284614961565b91508190509392505050565b7f5061757361626c653a206e6f7420706175736564000000000000000000000000600082015250565b6000614a4e6014836131a9565b9150614a5982614a18565b602082019050919050565b60006020820190508181036000830152614a7d81614a41565b9050919050565b600060a082019050614a996000830188613a16565b614aa66020830187613a16565b614ab3604083018661308c565b614ac0606083018561308c565b8181036080830152614ad2818461463e565b90509695505050505050565b7f5061757361626c653a2070617573656400000000000000000000000000000000600082015250565b6000614b146010836131a9565b9150614b1f82614ade565b602082019050919050565b60006020820190508181036000830152614b4381614b07565b9050919050565b6000614b5582613016565b9150614b6083613016565b9250817fffffffffffffffffffffffffffffffffffffffffffffffffffffffffffffffff0483118215151615614b9957614b98613fd2565b5b828202905092915050565b6000614baf82613016565b91506000821415614bc357614bc2613fd2565b5b600182039050919050565b7f537472696e67733a20686578206c656e67746820696e73756666696369656e74600082015250565b6000614c046020836131a9565b9150614c0f82614bce565b602082019050919050565b60006020820190508181036000830152614c3381614bf7565b9050919050565b6000614c4582613016565b9150614c5083613016565b925082821015614c6357614c62613fd2565b5b828203905092915050565b7f4e487b7100000000000000000000000000000000000000000000000000000000600052603160045260246000fdfea26469706673582212209409743ca6fd405a4813520bc01bce98c4549575be5ea3abb99644525848543164736f6c6343000809003368747470733a2f2f6170692e6672616e6b2e686b2f6170692f6e66742f64656d6f2f313135352f6d617276656c2f7b69647d2e6a736f6e",
  "devdoc": {
    "kind": "dev",
    "methods": {
      "balanceOf(address,uint256)": {
        "details": "See {IERC1155-balanceOf}. Requirements: - `account` cannot be the zero address."
      },
      "balanceOfBatch(address[],uint256[])": {
        "details": "See {IERC1155-balanceOfBatch}. Requirements: - `accounts` and `ids` must have the same length."
      },
      "getRoleAdmin(bytes32)": {
        "details": "Returns the admin role that controls `role`. See {grantRole} and {revokeRole}. To change a role's admin, use {_setRoleAdmin}."
      },
      "getRoleMember(bytes32,uint256)": {
        "details": "Returns one of the accounts that have `role`. `index` must be a value between 0 and {getRoleMemberCount}, non-inclusive. Role bearers are not sorted in any particular way, and their ordering may change at any point. WARNING: When using {getRoleMember} and {getRoleMemberCount}, make sure you perform all queries on the same block. See the following https://forum.openzeppelin.com/t/iterating-over-elements-on-enumerableset-in-openzeppelin-contracts/2296[forum post] for more information."
      },
      "getRoleMemberCount(bytes32)": {
        "details": "Returns the number of accounts that have `role`. Can be used together with {getRoleMember} to enumerate all bearers of a role."
      },
      "grantRole(bytes32,address)": {
        "details": "Grants `role` to `account`. If `account` had not been already granted `role`, emits a {RoleGranted} event. Requirements: - the caller must have ``role``'s admin role. May emit a {RoleGranted} event."
      },
      "hasRole(bytes32,address)": {
        "details": "Returns `true` if `account` has been granted `role`."
      },
      "isApprovedForAll(address,address)": {
        "details": "See {IERC1155-isApprovedForAll}."
      },
      "mint(address,uint256,uint256,bytes)": {
        "details": "Creates `amount` new tokens for `to`, of token type `id`. See {ERC1155-_mint}. Requirements: - the caller must have the `MINTER_ROLE`."
      },
      "mintBatch(address,uint256[],uint256[],bytes)": {
        "details": "xref:ROOT:erc1155.adoc#batch-operations[Batched] variant of {mint}."
      },
      "pause()": {
        "details": "Pauses all token transfers. See {ERC1155Pausable} and {Pausable-_pause}. Requirements: - the caller must have the `PAUSER_ROLE`."
      },
      "paused()": {
        "details": "Returns true if the contract is paused, and false otherwise."
      },
      "renounceRole(bytes32,address)": {
        "details": "Revokes `role` from the calling account. Roles are often managed via {grantRole} and {revokeRole}: this function's purpose is to provide a mechanism for accounts to lose their privileges if they are compromised (such as when a trusted device is misplaced). If the calling account had been revoked `role`, emits a {RoleRevoked} event. Requirements: - the caller must be `account`. May emit a {RoleRevoked} event."
      },
      "revokeRole(bytes32,address)": {
        "details": "Revokes `role` from `account`. If `account` had been granted `role`, emits a {RoleRevoked} event. Requirements: - the caller must have ``role``'s admin role. May emit a {RoleRevoked} event."
      },
      "safeBatchTransferFrom(address,address,uint256[],uint256[],bytes)": {
        "details": "See {IERC1155-safeBatchTransferFrom}."
      },
      "safeTransferFrom(address,address,uint256,uint256,bytes)": {
        "details": "See {IERC1155-safeTransferFrom}."
      },
      "setApprovalForAll(address,bool)": {
        "details": "See {IERC1155-setApprovalForAll}."
      },
      "supportsInterface(bytes4)": {
        "details": "See {IERC165-supportsInterface}."
      },
      "unpause()": {
        "details": "Unpauses all token transfers. See {ERC1155Pausable} and {Pausable-_unpause}. Requirements: - the caller must have the `PAUSER_ROLE`."
      },
      "uri(uint256)": {
        "details": "See {IERC1155MetadataURI-uri}. This implementation returns the same URI for *all* token types. It relies on the token type ID substitution mechanism https://eips.ethereum.org/EIPS/eip-1155#metadata[defined in the EIP]. Clients calling this function must replace the `\\{id\\}` substring with the actual token type ID."
      }
    },
    "version": 1
  },
  "userdoc": {
    "kind": "user",
    "methods": {},
    "version": 1
  },
  "storageLayout": {
    "storage": [
      {
        "astId": 24,
        "contract": "contracts/BasicNft1155.sol:BasicNft1155",
        "label": "_roles",
        "offset": 0,
        "slot": "0",
        "type": "t_mapping(t_bytes32,t_struct(RoleData)19_storage)"
      },
      {
        "astId": 338,
        "contract": "contracts/BasicNft1155.sol:BasicNft1155",
        "label": "_roleMembers",
        "offset": 0,
        "slot": "1",
        "type": "t_mapping(t_bytes32,t_struct(AddressSet)3257_storage)"
      },
      {
        "astId": 676,
        "contract": "contracts/BasicNft1155.sol:BasicNft1155",
        "label": "_balances",
        "offset": 0,
        "slot": "2",
        "type": "t_mapping(t_uint256,t_mapping(t_address,t_uint256))"
      },
      {
        "astId": 682,
        "contract": "contracts/BasicNft1155.sol:BasicNft1155",
        "label": "_operatorApprovals",
        "offset": 0,
        "slot": "3",
        "type": "t_mapping(t_address,t_mapping(t_address,t_bool))"
      },
      {
        "astId": 684,
        "contract": "contracts/BasicNft1155.sol:BasicNft1155",
        "label": "_uri",
        "offset": 0,
        "slot": "4",
        "type": "t_string_storage"
      },
      {
        "astId": 560,
        "contract": "contracts/BasicNft1155.sol:BasicNft1155",
        "label": "_paused",
        "offset": 0,
        "slot": "5",
        "type": "t_bool"
      }
    ],
    "types": {
      "t_address": {
        "encoding": "inplace",
        "label": "address",
        "numberOfBytes": "20"
      },
      "t_array(t_bytes32)dyn_storage": {
        "base": "t_bytes32",
        "encoding": "dynamic_array",
        "label": "bytes32[]",
        "numberOfBytes": "32"
      },
      "t_bool": {
        "encoding": "inplace",
        "label": "bool",
        "numberOfBytes": "1"
      },
      "t_bytes32": {
        "encoding": "inplace",
        "label": "bytes32",
        "numberOfBytes": "32"
      },
      "t_mapping(t_address,t_bool)": {
        "encoding": "mapping",
        "key": "t_address",
        "label": "mapping(address => bool)",
        "numberOfBytes": "32",
        "value": "t_bool"
      },
      "t_mapping(t_address,t_mapping(t_address,t_bool))": {
        "encoding": "mapping",
        "key": "t_address",
        "label": "mapping(address => mapping(address => bool))",
        "numberOfBytes": "32",
        "value": "t_mapping(t_address,t_bool)"
      },
      "t_mapping(t_address,t_uint256)": {
        "encoding": "mapping",
        "key": "t_address",
        "label": "mapping(address => uint256)",
        "numberOfBytes": "32",
        "value": "t_uint256"
      },
      "t_mapping(t_bytes32,t_struct(AddressSet)3257_storage)": {
        "encoding": "mapping",
        "key": "t_bytes32",
        "label": "mapping(bytes32 => struct EnumerableSet.AddressSet)",
        "numberOfBytes": "32",
        "value": "t_struct(AddressSet)3257_storage"
      },
      "t_mapping(t_bytes32,t_struct(RoleData)19_storage)": {
        "encoding": "mapping",
        "key": "t_bytes32",
        "label": "mapping(bytes32 => struct AccessControl.RoleData)",
        "numberOfBytes": "32",
        "value": "t_struct(RoleData)19_storage"
      },
      "t_mapping(t_bytes32,t_uint256)": {
        "encoding": "mapping",
        "key": "t_bytes32",
        "label": "mapping(bytes32 => uint256)",
        "numberOfBytes": "32",
        "value": "t_uint256"
      },
      "t_mapping(t_uint256,t_mapping(t_address,t_uint256))": {
        "encoding": "mapping",
        "key": "t_uint256",
        "label": "mapping(uint256 => mapping(address => uint256))",
        "numberOfBytes": "32",
        "value": "t_mapping(t_address,t_uint256)"
      },
      "t_string_storage": {
        "encoding": "bytes",
        "label": "string",
        "numberOfBytes": "32"
      },
      "t_struct(AddressSet)3257_storage": {
        "encoding": "inplace",
        "label": "struct EnumerableSet.AddressSet",
        "members": [
          {
            "astId": 3256,
            "contract": "contracts/BasicNft1155.sol:BasicNft1155",
            "label": "_inner",
            "offset": 0,
            "slot": "0",
            "type": "t_struct(Set)2956_storage"
          }
        ],
        "numberOfBytes": "64"
      },
      "t_struct(RoleData)19_storage": {
        "encoding": "inplace",
        "label": "struct AccessControl.RoleData",
        "members": [
          {
            "astId": 16,
            "contract": "contracts/BasicNft1155.sol:BasicNft1155",
            "label": "members",
            "offset": 0,
            "slot": "0",
            "type": "t_mapping(t_address,t_bool)"
          },
          {
            "astId": 18,
            "contract": "contracts/BasicNft1155.sol:BasicNft1155",
            "label": "adminRole",
            "offset": 0,
            "slot": "1",
            "type": "t_bytes32"
          }
        ],
        "numberOfBytes": "64"
      },
      "t_struct(Set)2956_storage": {
        "encoding": "inplace",
        "label": "struct EnumerableSet.Set",
        "members": [
          {
            "astId": 2951,
            "contract": "contracts/BasicNft1155.sol:BasicNft1155",
            "label": "_values",
            "offset": 0,
            "slot": "0",
            "type": "t_array(t_bytes32)dyn_storage"
          },
          {
            "astId": 2955,
            "contract": "contracts/BasicNft1155.sol:BasicNft1155",
            "label": "_indexes",
            "offset": 0,
            "slot": "1",
            "type": "t_mapping(t_bytes32,t_uint256)"
          }
        ],
        "numberOfBytes": "64"
      },
      "t_uint256": {
        "encoding": "inplace",
        "label": "uint256",
        "numberOfBytes": "32"
      }
    }
  }
}