{
  "address": "0xF1049fa89051A6D7F6a0bdf1DFB1223E28E9F087",
  "abi": [
    {
      "inputs": [],
      "stateMutability": "nonpayable",
      "type": "constructor"
    },
    {
      "anonymous": false,
      "inputs": [
        {
          "indexed": true,
          "internalType": "address",
          "name": "account",
          "type": "address"
        },
        {
          "indexed": true,
          "internalType": "address",
          "name": "operator",
          "type": "address"
        },
        {
          "indexed": false,
          "internalType": "bool",
          "name": "approved",
          "type": "bool"
        }
      ],
      "name": "ApprovalForAll",
      "type": "event"
    },
    {
      "anonymous": false,
      "inputs": [
        {
          "indexed": true,
          "internalType": "address",
          "name": "operator",
          "type": "address"
        },
        {
          "indexed": true,
          "internalType": "address",
          "name": "from",
          "type": "address"
        },
        {
          "indexed": true,
          "internalType": "address",
          "name": "to",
          "type": "address"
        },
        {
          "indexed": false,
          "internalType": "uint256[]",
          "name": "ids",
          "type": "uint256[]"
        },
        {
          "indexed": false,
          "internalType": "uint256[]",
          "name": "values",
          "type": "uint256[]"
        }
      ],
      "name": "TransferBatch",
      "type": "event"
    },
    {
      "anonymous": false,
      "inputs": [
        {
          "indexed": true,
          "internalType": "address",
          "name": "operator",
          "type": "address"
        },
        {
          "indexed": true,
          "internalType": "address",
          "name": "from",
          "type": "address"
        },
        {
          "indexed": true,
          "internalType": "address",
          "name": "to",
          "type": "address"
        },
        {
          "indexed": false,
          "internalType": "uint256",
          "name": "id",
          "type": "uint256"
        },
        {
          "indexed": false,
          "internalType": "uint256",
          "name": "value",
          "type": "uint256"
        }
      ],
      "name": "TransferSingle",
      "type": "event"
    },
    {
      "anonymous": false,
      "inputs": [
        {
          "indexed": false,
          "internalType": "string",
          "name": "value",
          "type": "string"
        },
        {
          "indexed": true,
          "internalType": "uint256",
          "name": "id",
          "type": "uint256"
        }
      ],
      "name": "URI",
      "type": "event"
    },
    {
      "inputs": [],
      "name": "CAPTAIN_AMERICA",
      "outputs": [
        {
          "internalType": "uint256",
          "name": "",
          "type": "uint256"
        }
      ],
      "stateMutability": "view",
      "type": "function"
    },
    {
      "inputs": [],
      "name": "IRON_MAN",
      "outputs": [
        {
          "internalType": "uint256",
          "name": "",
          "type": "uint256"
        }
      ],
      "stateMutability": "view",
      "type": "function"
    },
    {
      "inputs": [],
      "name": "SPIDER_MAN",
      "outputs": [
        {
          "internalType": "uint256",
          "name": "",
          "type": "uint256"
        }
      ],
      "stateMutability": "view",
      "type": "function"
    },
    {
      "inputs": [],
      "name": "THOR",
      "outputs": [
        {
          "internalType": "uint256",
          "name": "",
          "type": "uint256"
        }
      ],
      "stateMutability": "view",
      "type": "function"
    },
    {
      "inputs": [
        {
          "internalType": "address",
          "name": "account",
          "type": "address"
        },
        {
          "internalType": "uint256",
          "name": "id",
          "type": "uint256"
        }
      ],
      "name": "balanceOf",
      "outputs": [
        {
          "internalType": "uint256",
          "name": "",
          "type": "uint256"
        }
      ],
      "stateMutability": "view",
      "type": "function"
    },
    {
      "inputs": [
        {
          "internalType": "address[]",
          "name": "accounts",
          "type": "address[]"
        },
        {
          "internalType": "uint256[]",
          "name": "ids",
          "type": "uint256[]"
        }
      ],
      "name": "balanceOfBatch",
      "outputs": [
        {
          "internalType": "uint256[]",
          "name": "",
          "type": "uint256[]"
        }
      ],
      "stateMutability": "view",
      "type": "function"
    },
    {
      "inputs": [
        {
          "internalType": "address",
          "name": "account",
          "type": "address"
        },
        {
          "internalType": "address",
          "name": "operator",
          "type": "address"
        }
      ],
      "name": "isApprovedForAll",
      "outputs": [
        {
          "internalType": "bool",
          "name": "",
          "type": "bool"
        }
      ],
      "stateMutability": "view",
      "type": "function"
    },
    {
      "inputs": [
        {
          "internalType": "address",
          "name": "deployer",
          "type": "address"
        },
        {
          "internalType": "uint256",
          "name": "id",
          "type": "uint256"
        },
        {
          "internalType": "uint256",
          "name": "qty",
          "type": "uint256"
        }
      ],
      "name": "mintNft",
      "outputs": [],
      "stateMutability": "nonpayable",
      "type": "function"
    },
    {
      "inputs": [
        {
          "internalType": "address",
          "name": "deployer",
          "type": "address"
        },
        {
          "internalType": "uint256[]",
          "name": "idArray",
          "type": "uint256[]"
        },
        {
          "internalType": "uint256[]",
          "name": "qytArray",
          "type": "uint256[]"
        }
      ],
      "name": "mintNftBatch",
      "outputs": [],
      "stateMutability": "nonpayable",
      "type": "function"
    },
    {
      "inputs": [
        {
          "internalType": "address",
          "name": "from",
          "type": "address"
        },
        {
          "internalType": "address",
          "name": "to",
          "type": "address"
        },
        {
          "internalType": "uint256[]",
          "name": "ids",
          "type": "uint256[]"
        },
        {
          "internalType": "uint256[]",
          "name": "amounts",
          "type": "uint256[]"
        },
        {
          "internalType": "bytes",
          "name": "data",
          "type": "bytes"
        }
      ],
      "name": "safeBatchTransferFrom",
      "outputs": [],
      "stateMutability": "nonpayable",
      "type": "function"
    },
    {
      "inputs": [
        {
          "internalType": "address",
          "name": "from",
          "type": "address"
        },
        {
          "internalType": "address",
          "name": "to",
          "type": "address"
        },
        {
          "internalType": "uint256",
          "name": "id",
          "type": "uint256"
        },
        {
          "internalType": "uint256",
          "name": "amount",
          "type": "uint256"
        },
        {
          "internalType": "bytes",
          "name": "data",
          "type": "bytes"
        }
      ],
      "name": "safeTransferFrom",
      "outputs": [],
      "stateMutability": "nonpayable",
      "type": "function"
    },
    {
      "inputs": [
        {
          "internalType": "address",
          "name": "operator",
          "type": "address"
        },
        {
          "internalType": "bool",
          "name": "approved",
          "type": "bool"
        }
      ],
      "name": "setApprovalForAll",
      "outputs": [],
      "stateMutability": "nonpayable",
      "type": "function"
    },
    {
      "inputs": [
        {
          "internalType": "bytes4",
          "name": "interfaceId",
          "type": "bytes4"
        }
      ],
      "name": "supportsInterface",
      "outputs": [
        {
          "internalType": "bool",
          "name": "",
          "type": "bool"
        }
      ],
      "stateMutability": "view",
      "type": "function"
    },
    {
      "inputs": [
        {
          "internalType": "uint256",
          "name": "",
          "type": "uint256"
        }
      ],
      "name": "uri",
      "outputs": [
        {
          "internalType": "string",
          "name": "",
          "type": "string"
        }
      ],
      "stateMutability": "view",
      "type": "function"
    }
  ],
  "transactionHash": "0xc754bd955a93bd8bb48378a66e5e2121f83595d03b0973657182366a47d2819e",
  "args": [],
  "numDeployments": 1,
  "solcInputHash": "6cf8d57cf80c6f9c60c402a17853e1ea",
  "bytecode": "0x60806040523480156200001157600080fd5b5060405180606001604052806037815260200162002d87603791396200003d816200004460201b60201c565b5062000175565b80600290805190602001906200005c92919062000060565b5050565b8280546200006e906200013f565b90600052602060002090601f016020900481019282620000925760008555620000de565b82601f10620000ad57805160ff1916838001178555620000de565b82800160010185558215620000de579182015b82811115620000dd578251825591602001919060010190620000c0565b5b509050620000ed9190620000f1565b5090565b5b808211156200010c576000816000905550600101620000f2565b5090565b7f4e487b7100000000000000000000000000000000000000000000000000000000600052602260045260246000fd5b600060028204905060018216806200015857607f821691505b602082108114156200016f576200016e62000110565b5b50919050565b612c0280620001856000396000f3fe608060405234801561001057600080fd5b50600436106100e95760003560e01c80639673f1081161008c578063cf7c7c7811610066578063cf7c7c781461025c578063e952d34d14610278578063e985e9c514610296578063f242432a146102c6576100e9565b80639673f10814610206578063a22cb46514610222578063ad11476c1461023e576100e9565b80630e89341c116100c85780630e89341c1461016c5780632eb2c2d61461019c57806348f853ba146101b85780634e1273f4146101d6576100e9565b8062fdd58e146100ee57806301ffc9a71461011e57806302ed78a01461014e575b600080fd5b61010860048036038101906101039190611918565b6102e2565b6040516101159190611967565b60405180910390f35b610138600480360381019061013391906119da565b6103ab565b6040516101459190611a22565b60405180910390f35b61015661048d565b6040516101639190611967565b60405180910390f35b61018660048036038101906101819190611a3d565b610492565b6040516101939190611b03565b60405180910390f35b6101b660048036038101906101b19190611d22565b610526565b005b6101c06105c7565b6040516101cd9190611967565b60405180910390f35b6101f060048036038101906101eb9190611eb4565b6105cc565b6040516101fd9190611fea565b60405180910390f35b610220600480360381019061021b919061200c565b6106e5565b005b61023c600480360381019061023791906120c3565b610705565b005b61024661071b565b6040516102539190611967565b60405180910390f35b61027660048036038101906102719190612103565b610720565b005b610280610740565b60405161028d9190611967565b60405180910390f35b6102b060048036038101906102ab9190612156565b610745565b6040516102bd9190611a22565b60405180910390f35b6102e060048036038101906102db9190612196565b6107d9565b005b60008073ffffffffffffffffffffffffffffffffffffffff168373ffffffffffffffffffffffffffffffffffffffff161415610353576040517f08c379a000000000000000000000000000000000000000000000000000000000815260040161034a9061229f565b60405180910390fd5b60008083815260200190815260200160002060008473ffffffffffffffffffffffffffffffffffffffff1673ffffffffffffffffffffffffffffffffffffffff16815260200190815260200160002054905092915050565b60007fd9b67a26000000000000000000000000000000000000000000000000000000007bffffffffffffffffffffffffffffffffffffffffffffffffffffffff1916827bffffffffffffffffffffffffffffffffffffffffffffffffffffffff1916148061047657507f0e89341c000000000000000000000000000000000000000000000000000000007bffffffffffffffffffffffffffffffffffffffffffffffffffffffff1916827bffffffffffffffffffffffffffffffffffffffffffffffffffffffff1916145b8061048657506104858261087a565b5b9050919050565b600281565b6060600280546104a1906122ee565b80601f01602080910402602001604051908101604052809291908181526020018280546104cd906122ee565b801561051a5780601f106104ef5761010080835404028352916020019161051a565b820191906000526020600020905b8154815290600101906020018083116104fd57829003601f168201915b50505050509050919050565b61052e6108e4565b73ffffffffffffffffffffffffffffffffffffffff168573ffffffffffffffffffffffffffffffffffffffff16148061057457506105738561056e6108e4565b610745565b5b6105b3576040517f08c379a00000000000000000000000000000000000000000000000000000000081526004016105aa90612392565b60405180910390fd5b6105c085858585856108ec565b5050505050565b600181565b60608151835114610612576040517f08c379a000000000000000000000000000000000000000000000000000000000815260040161060990612424565b60405180910390fd5b6000835167ffffffffffffffff81111561062f5761062e611b2a565b5b60405190808252806020026020018201604052801561065d5781602001602082028036833780820191505090505b50905060005b84518110156106da576106aa85828151811061068257610681612444565b5b602002602001015185838151811061069d5761069c612444565b5b60200260200101516102e2565b8282815181106106bd576106bc612444565b5b602002602001018181525050806106d3906124a2565b9050610663565b508091505092915050565b61070083838360405180602001604052806000815250610c0e565b505050565b6107176107106108e4565b8383610e3b565b5050565b600381565b61073b83838360405180602001604052806000815250610fa8565b505050565b600081565b6000600160008473ffffffffffffffffffffffffffffffffffffffff1673ffffffffffffffffffffffffffffffffffffffff16815260200190815260200160002060008373ffffffffffffffffffffffffffffffffffffffff1673ffffffffffffffffffffffffffffffffffffffff16815260200190815260200160002060009054906101000a900460ff16905092915050565b6107e16108e4565b73ffffffffffffffffffffffffffffffffffffffff168573ffffffffffffffffffffffffffffffffffffffff1614806108275750610826856108216108e4565b610745565b5b610866576040517f08c379a000000000000000000000000000000000000000000000000000000000815260040161085d90612392565b60405180910390fd5b6108738585858585611159565b5050505050565b60007f01ffc9a7000000000000000000000000000000000000000000000000000000007bffffffffffffffffffffffffffffffffffffffffffffffffffffffff1916827bffffffffffffffffffffffffffffffffffffffffffffffffffffffff1916149050919050565b600033905090565b8151835114610930576040517f08c379a00000000000000000000000000000000000000000000000000000000081526004016109279061255d565b60405180910390fd5b600073ffffffffffffffffffffffffffffffffffffffff168473ffffffffffffffffffffffffffffffffffffffff1614156109a0576040517f08c379a0000000000000000000000000000000000000000000000000000000008152600401610997906125ef565b60405180910390fd5b60006109aa6108e4565b90506109ba8187878787876113f5565b60005b8451811015610b6b5760008582815181106109db576109da612444565b5b6020026020010151905060008583815181106109fa576109f9612444565b5b60200260200101519050600080600084815260200190815260200160002060008b73ffffffffffffffffffffffffffffffffffffffff1673ffffffffffffffffffffffffffffffffffffffff16815260200190815260200160002054905081811015610a9b576040517f08c379a0000000000000000000000000000000000000000000000000000000008152600401610a9290612681565b60405180910390fd5b81810360008085815260200190815260200160002060008c73ffffffffffffffffffffffffffffffffffffffff1673ffffffffffffffffffffffffffffffffffffffff168152602001908152602001600020819055508160008085815260200190815260200160002060008b73ffffffffffffffffffffffffffffffffffffffff1673ffffffffffffffffffffffffffffffffffffffff1681526020019081526020016000206000828254610b5091906126a1565b9250508190555050505080610b64906124a2565b90506109bd565b508473ffffffffffffffffffffffffffffffffffffffff168673ffffffffffffffffffffffffffffffffffffffff168273ffffffffffffffffffffffffffffffffffffffff167f4a39dc06d4c0dbc64b70af90fd698a233a518aa5d07e595d983b8c0526c8f7fb8787604051610be29291906126f7565b60405180910390a4610bf88187878787876113fd565b610c06818787878787611405565b505050505050565b600073ffffffffffffffffffffffffffffffffffffffff168473ffffffffffffffffffffffffffffffffffffffff161415610c7e576040517f08c379a0000000000000000000000000000000000000000000000000000000008152600401610c75906127a0565b60405180910390fd5b8151835114610cc2576040517f08c379a0000000000000000000000000000000000000000000000000000000008152600401610cb99061255d565b60405180910390fd5b6000610ccc6108e4565b9050610cdd816000878787876113f5565b60005b8451811015610d9657838181518110610cfc57610cfb612444565b5b6020026020010151600080878481518110610d1a57610d19612444565b5b6020026020010151815260200190815260200160002060008873ffffffffffffffffffffffffffffffffffffffff1673ffffffffffffffffffffffffffffffffffffffff1681526020019081526020016000206000828254610d7c91906126a1565b925050819055508080610d8e906124a2565b915050610ce0565b508473ffffffffffffffffffffffffffffffffffffffff16600073ffffffffffffffffffffffffffffffffffffffff168273ffffffffffffffffffffffffffffffffffffffff167f4a39dc06d4c0dbc64b70af90fd698a233a518aa5d07e595d983b8c0526c8f7fb8787604051610e0e9291906126f7565b60405180910390a4610e25816000878787876113fd565b610e3481600087878787611405565b5050505050565b8173ffffffffffffffffffffffffffffffffffffffff168373ffffffffffffffffffffffffffffffffffffffff161415610eaa576040517f08c379a0000000000000000000000000000000000000000000000000000000008152600401610ea190612832565b60405180910390fd5b80600160008573ffffffffffffffffffffffffffffffffffffffff1673ffffffffffffffffffffffffffffffffffffffff16815260200190815260200160002060008473ffffffffffffffffffffffffffffffffffffffff1673ffffffffffffffffffffffffffffffffffffffff16815260200190815260200160002060006101000a81548160ff0219169083151502179055508173ffffffffffffffffffffffffffffffffffffffff168373ffffffffffffffffffffffffffffffffffffffff167f17307eab39ab6107e8899845ad3d59bd9653f200f220920489ca2b5937696c3183604051610f9b9190611a22565b60405180910390a3505050565b600073ffffffffffffffffffffffffffffffffffffffff168473ffffffffffffffffffffffffffffffffffffffff161415611018576040517f08c379a000000000000000000000000000000000000000000000000000000000815260040161100f906127a0565b60405180910390fd5b60006110226108e4565b9050600061102f856115ec565b9050600061103c856115ec565b905061104d836000898585896113f5565b8460008088815260200190815260200160002060008973ffffffffffffffffffffffffffffffffffffffff1673ffffffffffffffffffffffffffffffffffffffff16815260200190815260200160002060008282546110ac91906126a1565b925050819055508673ffffffffffffffffffffffffffffffffffffffff16600073ffffffffffffffffffffffffffffffffffffffff168473ffffffffffffffffffffffffffffffffffffffff167fc3d58168c5ae7397731d063d5bbf3d657854427343f4c083240f7aacaa2d0f62898960405161112a929190612852565b60405180910390a4611141836000898585896113fd565b61115083600089898989611666565b50505050505050565b600073ffffffffffffffffffffffffffffffffffffffff168473ffffffffffffffffffffffffffffffffffffffff1614156111c9576040517f08c379a00000000000000000000000000000000000000000000000000000000081526004016111c0906125ef565b60405180910390fd5b60006111d36108e4565b905060006111e0856115ec565b905060006111ed856115ec565b90506111fd8389898585896113f5565b600080600088815260200190815260200160002060008a73ffffffffffffffffffffffffffffffffffffffff1673ffffffffffffffffffffffffffffffffffffffff16815260200190815260200160002054905085811015611294576040517f08c379a000000000000000000000000000000000000000000000000000000000815260040161128b90612681565b60405180910390fd5b85810360008089815260200190815260200160002060008b73ffffffffffffffffffffffffffffffffffffffff1673ffffffffffffffffffffffffffffffffffffffff168152602001908152602001600020819055508560008089815260200190815260200160002060008a73ffffffffffffffffffffffffffffffffffffffff1673ffffffffffffffffffffffffffffffffffffffff168152602001908152602001600020600082825461134991906126a1565b925050819055508773ffffffffffffffffffffffffffffffffffffffff168973ffffffffffffffffffffffffffffffffffffffff168573ffffffffffffffffffffffffffffffffffffffff167fc3d58168c5ae7397731d063d5bbf3d657854427343f4c083240f7aacaa2d0f628a8a6040516113c6929190612852565b60405180910390a46113dc848a8a86868a6113fd565b6113ea848a8a8a8a8a611666565b505050505050505050565b505050505050565b505050505050565b6114248473ffffffffffffffffffffffffffffffffffffffff1661184d565b156115e4578373ffffffffffffffffffffffffffffffffffffffff1663bc197c8187878686866040518663ffffffff1660e01b815260040161146a9594939291906128df565b602060405180830381600087803b15801561148457600080fd5b505af19250505080156114b557506040513d601f19601f820116820180604052508101906114b2919061295c565b60015b61155b576114c1612996565b806308c379a0141561151e57506114d66129b8565b806114e15750611520565b806040517f08c379a00000000000000000000000000000000000000000000000000000000081526004016115159190611b03565b60405180910390fd5b505b6040517f08c379a000000000000000000000000000000000000000000000000000000000815260040161155290612ac0565b60405180910390fd5b63bc197c8160e01b7bffffffffffffffffffffffffffffffffffffffffffffffffffffffff1916817bffffffffffffffffffffffffffffffffffffffffffffffffffffffff1916146115e2576040517f08c379a00000000000000000000000000000000000000000000000000000000081526004016115d990612b52565b60405180910390fd5b505b505050505050565b60606000600167ffffffffffffffff81111561160b5761160a611b2a565b5b6040519080825280602002602001820160405280156116395781602001602082028036833780820191505090505b509050828160008151811061165157611650612444565b5b60200260200101818152505080915050919050565b6116858473ffffffffffffffffffffffffffffffffffffffff1661184d565b15611845578373ffffffffffffffffffffffffffffffffffffffff1663f23a6e6187878686866040518663ffffffff1660e01b81526004016116cb959493929190612b72565b602060405180830381600087803b1580156116e557600080fd5b505af192505050801561171657506040513d601f19601f82011682018060405250810190611713919061295c565b60015b6117bc57611722612996565b806308c379a0141561177f57506117376129b8565b806117425750611781565b806040517f08c379a00000000000000000000000000000000000000000000000000000000081526004016117769190611b03565b60405180910390fd5b505b6040517f08c379a00000000000000000000000000000000000000000000000000000000081526004016117b390612ac0565b60405180910390fd5b63f23a6e6160e01b7bffffffffffffffffffffffffffffffffffffffffffffffffffffffff1916817bffffffffffffffffffffffffffffffffffffffffffffffffffffffff191614611843576040517f08c379a000000000000000000000000000000000000000000000000000000000815260040161183a90612b52565b60405180910390fd5b505b505050505050565b6000808273ffffffffffffffffffffffffffffffffffffffff163b119050919050565b6000604051905090565b600080fd5b600080fd5b600073ffffffffffffffffffffffffffffffffffffffff82169050919050565b60006118af82611884565b9050919050565b6118bf816118a4565b81146118ca57600080fd5b50565b6000813590506118dc816118b6565b92915050565b6000819050919050565b6118f5816118e2565b811461190057600080fd5b50565b600081359050611912816118ec565b92915050565b6000806040838503121561192f5761192e61187a565b5b600061193d858286016118cd565b925050602061194e85828601611903565b9150509250929050565b611961816118e2565b82525050565b600060208201905061197c6000830184611958565b92915050565b60007fffffffff0000000000000000000000000000000000000000000000000000000082169050919050565b6119b781611982565b81146119c257600080fd5b50565b6000813590506119d4816119ae565b92915050565b6000602082840312156119f0576119ef61187a565b5b60006119fe848285016119c5565b91505092915050565b60008115159050919050565b611a1c81611a07565b82525050565b6000602082019050611a376000830184611a13565b92915050565b600060208284031215611a5357611a5261187a565b5b6000611a6184828501611903565b91505092915050565b600081519050919050565b600082825260208201905092915050565b60005b83811015611aa4578082015181840152602081019050611a89565b83811115611ab3576000848401525b50505050565b6000601f19601f8301169050919050565b6000611ad582611a6a565b611adf8185611a75565b9350611aef818560208601611a86565b611af881611ab9565b840191505092915050565b60006020820190508181036000830152611b1d8184611aca565b905092915050565b600080fd5b7f4e487b7100000000000000000000000000000000000000000000000000000000600052604160045260246000fd5b611b6282611ab9565b810181811067ffffffffffffffff82111715611b8157611b80611b2a565b5b80604052505050565b6000611b94611870565b9050611ba08282611b59565b919050565b600067ffffffffffffffff821115611bc057611bbf611b2a565b5b602082029050602081019050919050565b600080fd5b6000611be9611be484611ba5565b611b8a565b90508083825260208201905060208402830185811115611c0c57611c0b611bd1565b5b835b81811015611c355780611c218882611903565b845260208401935050602081019050611c0e565b5050509392505050565b600082601f830112611c5457611c53611b25565b5b8135611c64848260208601611bd6565b91505092915050565b600080fd5b600067ffffffffffffffff821115611c8d57611c8c611b2a565b5b611c9682611ab9565b9050602081019050919050565b82818337600083830152505050565b6000611cc5611cc084611c72565b611b8a565b905082815260208101848484011115611ce157611ce0611c6d565b5b611cec848285611ca3565b509392505050565b600082601f830112611d0957611d08611b25565b5b8135611d19848260208601611cb2565b91505092915050565b600080600080600060a08688031215611d3e57611d3d61187a565b5b6000611d4c888289016118cd565b9550506020611d5d888289016118cd565b945050604086013567ffffffffffffffff811115611d7e57611d7d61187f565b5b611d8a88828901611c3f565b935050606086013567ffffffffffffffff811115611dab57611daa61187f565b5b611db788828901611c3f565b925050608086013567ffffffffffffffff811115611dd857611dd761187f565b5b611de488828901611cf4565b9150509295509295909350565b600067ffffffffffffffff821115611e0c57611e0b611b2a565b5b602082029050602081019050919050565b6000611e30611e2b84611df1565b611b8a565b90508083825260208201905060208402830185811115611e5357611e52611bd1565b5b835b81811015611e7c5780611e6888826118cd565b845260208401935050602081019050611e55565b5050509392505050565b600082601f830112611e9b57611e9a611b25565b5b8135611eab848260208601611e1d565b91505092915050565b60008060408385031215611ecb57611eca61187a565b5b600083013567ffffffffffffffff811115611ee957611ee861187f565b5b611ef585828601611e86565b925050602083013567ffffffffffffffff811115611f1657611f1561187f565b5b611f2285828601611c3f565b9150509250929050565b600081519050919050565b600082825260208201905092915050565b6000819050602082019050919050565b611f61816118e2565b82525050565b6000611f738383611f58565b60208301905092915050565b6000602082019050919050565b6000611f9782611f2c565b611fa18185611f37565b9350611fac83611f48565b8060005b83811015611fdd578151611fc48882611f67565b9750611fcf83611f7f565b925050600181019050611fb0565b5085935050505092915050565b600060208201905081810360008301526120048184611f8c565b905092915050565b6000806000606084860312156120255761202461187a565b5b6000612033868287016118cd565b935050602084013567ffffffffffffffff8111156120545761205361187f565b5b61206086828701611c3f565b925050604084013567ffffffffffffffff8111156120815761208061187f565b5b61208d86828701611c3f565b9150509250925092565b6120a081611a07565b81146120ab57600080fd5b50565b6000813590506120bd81612097565b92915050565b600080604083850312156120da576120d961187a565b5b60006120e8858286016118cd565b92505060206120f9858286016120ae565b9150509250929050565b60008060006060848603121561211c5761211b61187a565b5b600061212a868287016118cd565b935050602061213b86828701611903565b925050604061214c86828701611903565b9150509250925092565b6000806040838503121561216d5761216c61187a565b5b600061217b858286016118cd565b925050602061218c858286016118cd565b9150509250929050565b600080600080600060a086880312156121b2576121b161187a565b5b60006121c0888289016118cd565b95505060206121d1888289016118cd565b94505060406121e288828901611903565b93505060606121f388828901611903565b925050608086013567ffffffffffffffff8111156122145761221361187f565b5b61222088828901611cf4565b9150509295509295909350565b7f455243313135353a2061646472657373207a65726f206973206e6f742061207660008201527f616c6964206f776e657200000000000000000000000000000000000000000000602082015250565b6000612289602a83611a75565b91506122948261222d565b604082019050919050565b600060208201905081810360008301526122b88161227c565b9050919050565b7f4e487b7100000000000000000000000000000000000000000000000000000000600052602260045260246000fd5b6000600282049050600182168061230657607f821691505b6020821081141561231a576123196122bf565b5b50919050565b7f455243313135353a2063616c6c6572206973206e6f7420746f6b656e206f776e60008201527f6572206e6f7220617070726f7665640000000000000000000000000000000000602082015250565b600061237c602f83611a75565b915061238782612320565b604082019050919050565b600060208201905081810360008301526123ab8161236f565b9050919050565b7f455243313135353a206163636f756e747320616e6420696473206c656e67746860008201527f206d69736d617463680000000000000000000000000000000000000000000000602082015250565b600061240e602983611a75565b9150612419826123b2565b604082019050919050565b6000602082019050818103600083015261243d81612401565b9050919050565b7f4e487b7100000000000000000000000000000000000000000000000000000000600052603260045260246000fd5b7f4e487b7100000000000000000000000000000000000000000000000000000000600052601160045260246000fd5b60006124ad826118e2565b91507fffffffffffffffffffffffffffffffffffffffffffffffffffffffffffffffff8214156124e0576124df612473565b5b600182019050919050565b7f455243313135353a2069647320616e6420616d6f756e7473206c656e6774682060008201527f6d69736d61746368000000000000000000000000000000000000000000000000602082015250565b6000612547602883611a75565b9150612552826124eb565b604082019050919050565b600060208201905081810360008301526125768161253a565b9050919050565b7f455243313135353a207472616e7366657220746f20746865207a65726f20616460008201527f6472657373000000000000000000000000000000000000000000000000000000602082015250565b60006125d9602583611a75565b91506125e48261257d565b604082019050919050565b60006020820190508181036000830152612608816125cc565b9050919050565b7f455243313135353a20696e73756666696369656e742062616c616e636520666f60008201527f72207472616e7366657200000000000000000000000000000000000000000000602082015250565b600061266b602a83611a75565b91506126768261260f565b604082019050919050565b6000602082019050818103600083015261269a8161265e565b9050919050565b60006126ac826118e2565b91506126b7836118e2565b9250827fffffffffffffffffffffffffffffffffffffffffffffffffffffffffffffffff038211156126ec576126eb612473565b5b828201905092915050565b600060408201905081810360008301526127118185611f8c565b905081810360208301526127258184611f8c565b90509392505050565b7f455243313135353a206d696e7420746f20746865207a65726f2061646472657360008201527f7300000000000000000000000000000000000000000000000000000000000000602082015250565b600061278a602183611a75565b91506127958261272e565b604082019050919050565b600060208201905081810360008301526127b98161277d565b9050919050565b7f455243313135353a2073657474696e6720617070726f76616c2073746174757360008201527f20666f722073656c660000000000000000000000000000000000000000000000602082015250565b600061281c602983611a75565b9150612827826127c0565b604082019050919050565b6000602082019050818103600083015261284b8161280f565b9050919050565b60006040820190506128676000830185611958565b6128746020830184611958565b9392505050565b612884816118a4565b82525050565b600081519050919050565b600082825260208201905092915050565b60006128b18261288a565b6128bb8185612895565b93506128cb818560208601611a86565b6128d481611ab9565b840191505092915050565b600060a0820190506128f4600083018861287b565b612901602083018761287b565b81810360408301526129138186611f8c565b905081810360608301526129278185611f8c565b9050818103608083015261293b81846128a6565b90509695505050505050565b600081519050612956816119ae565b92915050565b6000602082840312156129725761297161187a565b5b600061298084828501612947565b91505092915050565b60008160e01c9050919050565b600060033d11156129b55760046000803e6129b2600051612989565b90505b90565b600060443d10156129c857612a4b565b6129d0611870565b60043d036004823e80513d602482011167ffffffffffffffff821117156129f8575050612a4b565b808201805167ffffffffffffffff811115612a165750505050612a4b565b80602083010160043d038501811115612a33575050505050612a4b565b612a4282602001850186611b59565b82955050505050505b90565b7f455243313135353a207472616e7366657220746f206e6f6e204552433131353560008201527f526563656976657220696d706c656d656e746572000000000000000000000000602082015250565b6000612aaa603483611a75565b9150612ab582612a4e565b604082019050919050565b60006020820190508181036000830152612ad981612a9d565b9050919050565b7f455243313135353a204552433131353552656365697665722072656a6563746560008201527f6420746f6b656e73000000000000000000000000000000000000000000000000602082015250565b6000612b3c602883611a75565b9150612b4782612ae0565b604082019050919050565b60006020820190508181036000830152612b6b81612b2f565b9050919050565b600060a082019050612b87600083018861287b565b612b94602083018761287b565b612ba16040830186611958565b612bae6060830185611958565b8181036080830152612bc081846128a6565b9050969550505050505056fea2646970667358221220553fbc726e585a305bdb194378af3534aa9779fb287bd8ea77d32aaf25dd470664736f6c6343000809003368747470733a2f2f6170692e6672616e6b2e686b2f6170692f6e66742f64656d6f2f313135352f6d617276656c2f7b69647d2e6a736f6e",
  "devdoc": {
    "kind": "dev",
    "methods": {
      "balanceOf(address,uint256)": {
        "details": "See {IERC1155-balanceOf}. Requirements: - `account` cannot be the zero address."
      },
      "balanceOfBatch(address[],uint256[])": {
        "details": "See {IERC1155-balanceOfBatch}. Requirements: - `accounts` and `ids` must have the same length."
      },
      "isApprovedForAll(address,address)": {
        "details": "See {IERC1155-isApprovedForAll}."
      },
      "safeBatchTransferFrom(address,address,uint256[],uint256[],bytes)": {
        "details": "See {IERC1155-safeBatchTransferFrom}."
      },
      "safeTransferFrom(address,address,uint256,uint256,bytes)": {
        "details": "See {IERC1155-safeTransferFrom}."
      },
      "setApprovalForAll(address,bool)": {
        "details": "See {IERC1155-setApprovalForAll}."
      },
      "supportsInterface(bytes4)": {
        "details": "See {IERC165-supportsInterface}."
      },
      "uri(uint256)": {
        "details": "See {IERC1155MetadataURI-uri}. This implementation returns the same URI for *all* token types. It relies on the token type ID substitution mechanism https://eips.ethereum.org/EIPS/eip-1155#metadata[defined in the EIP]. Clients calling this function must replace the `\\{id\\}` substring with the actual token type ID."
      }
    },
    "version": 1
  },
  "userdoc": {
    "kind": "user",
    "methods": {},
    "version": 1
  },
  "storageLayout": {
    "storage": [
      {
        "astId": 25,
        "contract": "contracts/BasicNft1155Third.sol:BasicNft1155Third",
        "label": "_balances",
        "offset": 0,
        "slot": "0",
        "type": "t_mapping(t_uint256,t_mapping(t_address,t_uint256))"
      },
      {
        "astId": 31,
        "contract": "contracts/BasicNft1155Third.sol:BasicNft1155Third",
        "label": "_operatorApprovals",
        "offset": 0,
        "slot": "1",
        "type": "t_mapping(t_address,t_mapping(t_address,t_bool))"
      },
      {
        "astId": 33,
        "contract": "contracts/BasicNft1155Third.sol:BasicNft1155Third",
        "label": "_uri",
        "offset": 0,
        "slot": "2",
        "type": "t_string_storage"
      }
    ],
    "types": {
      "t_address": {
        "encoding": "inplace",
        "label": "address",
        "numberOfBytes": "20"
      },
      "t_bool": {
        "encoding": "inplace",
        "label": "bool",
        "numberOfBytes": "1"
      },
      "t_mapping(t_address,t_bool)": {
        "encoding": "mapping",
        "key": "t_address",
        "label": "mapping(address => bool)",
        "numberOfBytes": "32",
        "value": "t_bool"
      },
      "t_mapping(t_address,t_mapping(t_address,t_bool))": {
        "encoding": "mapping",
        "key": "t_address",
        "label": "mapping(address => mapping(address => bool))",
        "numberOfBytes": "32",
        "value": "t_mapping(t_address,t_bool)"
      },
      "t_mapping(t_address,t_uint256)": {
        "encoding": "mapping",
        "key": "t_address",
        "label": "mapping(address => uint256)",
        "numberOfBytes": "32",
        "value": "t_uint256"
      },
      "t_mapping(t_uint256,t_mapping(t_address,t_uint256))": {
        "encoding": "mapping",
        "key": "t_uint256",
        "label": "mapping(uint256 => mapping(address => uint256))",
        "numberOfBytes": "32",
        "value": "t_mapping(t_address,t_uint256)"
      },
      "t_string_storage": {
        "encoding": "bytes",
        "label": "string",
        "numberOfBytes": "32"
      },
      "t_uint256": {
        "encoding": "inplace",
        "label": "uint256",
        "numberOfBytes": "32"
      }
    }
  }
}