{
  "address": "0x3Fc1b55285De10b43B9ea4e980c7D9e79768a422",
  "abi": [
    {
      "inputs": [],
      "stateMutability": "nonpayable",
      "type": "constructor"
    },
    {
      "inputs": [
        {
          "internalType": "uint256",
          "name": "_favoriteNumber",
          "type": "uint256"
        },
        {
          "internalType": "string",
          "name": "_name",
          "type": "string"
        }
      ],
      "name": "addPerson",
      "outputs": [],
      "stateMutability": "nonpayable",
      "type": "function"
    },
    {
      "inputs": [
        {
          "internalType": "string",
          "name": "",
          "type": "string"
        }
      ],
      "name": "nameToFavoriteNumber",
      "outputs": [
        {
          "internalType": "uint256",
          "name": "",
          "type": "uint256"
        }
      ],
      "stateMutability": "view",
      "type": "function"
    },
    {
      "inputs": [
        {
          "internalType": "uint256",
          "name": "",
          "type": "uint256"
        }
      ],
      "name": "people",
      "outputs": [
        {
          "internalType": "uint256",
          "name": "favoriteNumber",
          "type": "uint256"
        },
        {
          "internalType": "string",
          "name": "name",
          "type": "string"
        }
      ],
      "stateMutability": "view",
      "type": "function"
    },
    {
      "inputs": [],
      "name": "retrieve",
      "outputs": [
        {
          "internalType": "uint256",
          "name": "",
          "type": "uint256"
        }
      ],
      "stateMutability": "view",
      "type": "function"
    },
    {
      "inputs": [
        {
          "internalType": "uint256",
          "name": "_favoriteNumber",
          "type": "uint256"
        }
      ],
      "name": "store",
      "outputs": [],
      "stateMutability": "nonpayable",
      "type": "function"
    }
  ],
  "transactionHash": "0x1823bbd9c557c8f9ba1512cc62bee8e51ade0ac954a3d9b2d427a653730b0711",
  "args": [],
  "numDeployments": 1,
  "solcInputHash": "118cc89ff445dc28d743418e5988fb3c",
  "bytecode": "0x608060405234801561001057600080fd5b50610771806100206000396000f3fe608060405234801561001057600080fd5b50600436106100575760003560e01c80632e64cec11461005c5780636057361d1461007a5780638bab8dd5146100965780639e7a13ad146100c6578063bc832d4e146100f7575b600080fd5b610064610113565b604051610071919061035c565b60405180910390f35b610094600480360381019061008f91906103b7565b61011c565b005b6100b060048036038101906100ab919061052a565b610126565b6040516100bd919061035c565b60405180910390f35b6100e060048036038101906100db91906103b7565b610154565b6040516100ee9291906105fb565b60405180910390f35b610111600480360381019061010c919061062b565b610210565b005b60008054905090565b8060008190555050565b6002818051602081018201805184825260208301602085012081835280955050505050506000915090505481565b6001818154811061016457600080fd5b906000526020600020906002020160009150905080600001549080600101805461018d906106b6565b80601f01602080910402602001604051908101604052809291908181526020018280546101b9906106b6565b80156102065780601f106101db57610100808354040283529160200191610206565b820191906000526020600020905b8154815290600101906020018083116101e957829003601f168201915b5050505050905082565b600160405180604001604052808481526020018381525090806001815401808255809150506001900390600052602060002090600202016000909190919091506000820151816000015560208201518160010190805190602001906102769291906102a0565b5050508160028260405161028a9190610724565b9081526020016040518091039020819055505050565b8280546102ac906106b6565b90600052602060002090601f0160209004810192826102ce5760008555610315565b82601f106102e757805160ff1916838001178555610315565b82800160010185558215610315579182015b828111156103145782518255916020019190600101906102f9565b5b5090506103229190610326565b5090565b5b8082111561033f576000816000905550600101610327565b5090565b6000819050919050565b61035681610343565b82525050565b6000602082019050610371600083018461034d565b92915050565b6000604051905090565b600080fd5b600080fd5b61039481610343565b811461039f57600080fd5b50565b6000813590506103b18161038b565b92915050565b6000602082840312156103cd576103cc610381565b5b60006103db848285016103a2565b91505092915050565b600080fd5b600080fd5b6000601f19601f8301169050919050565b7f4e487b7100000000000000000000000000000000000000000000000000000000600052604160045260246000fd5b610437826103ee565b810181811067ffffffffffffffff82111715610456576104556103ff565b5b80604052505050565b6000610469610377565b9050610475828261042e565b919050565b600067ffffffffffffffff821115610495576104946103ff565b5b61049e826103ee565b9050602081019050919050565b82818337600083830152505050565b60006104cd6104c88461047a565b61045f565b9050828152602081018484840111156104e9576104e86103e9565b5b6104f48482856104ab565b509392505050565b600082601f830112610511576105106103e4565b5b81356105218482602086016104ba565b91505092915050565b6000602082840312156105405761053f610381565b5b600082013567ffffffffffffffff81111561055e5761055d610386565b5b61056a848285016104fc565b91505092915050565b600081519050919050565b600082825260208201905092915050565b60005b838110156105ad578082015181840152602081019050610592565b838111156105bc576000848401525b50505050565b60006105cd82610573565b6105d7818561057e565b93506105e781856020860161058f565b6105f0816103ee565b840191505092915050565b6000604082019050610610600083018561034d565b818103602083015261062281846105c2565b90509392505050565b6000806040838503121561064257610641610381565b5b6000610650858286016103a2565b925050602083013567ffffffffffffffff81111561067157610670610386565b5b61067d858286016104fc565b9150509250929050565b7f4e487b7100000000000000000000000000000000000000000000000000000000600052602260045260246000fd5b600060028204905060018216806106ce57607f821691505b602082108114156106e2576106e1610687565b5b50919050565b600081905092915050565b60006106fe82610573565b61070881856106e8565b935061071881856020860161058f565b80840191505092915050565b600061073082846106f3565b91508190509291505056fea2646970667358221220ebabf958042544cdc75735e8c1fd8937376ad28f0158d0602fc8b9db203188a564736f6c63430008090033",
  "devdoc": {
    "kind": "dev",
    "methods": {},
    "version": 1
  },
  "userdoc": {
    "kind": "user",
    "methods": {},
    "version": 1
  },
  "storageLayout": {
    "storage": [
      {
        "astId": 3,
        "contract": "contracts/SimpleStorage.sol:SimpleStorage",
        "label": "favoriteNumber",
        "offset": 0,
        "slot": "0",
        "type": "t_uint256"
      },
      {
        "astId": 12,
        "contract": "contracts/SimpleStorage.sol:SimpleStorage",
        "label": "people",
        "offset": 0,
        "slot": "1",
        "type": "t_array(t_struct(People)8_storage)dyn_storage"
      },
      {
        "astId": 16,
        "contract": "contracts/SimpleStorage.sol:SimpleStorage",
        "label": "nameToFavoriteNumber",
        "offset": 0,
        "slot": "2",
        "type": "t_mapping(t_string_memory_ptr,t_uint256)"
      }
    ],
    "types": {
      "t_array(t_struct(People)8_storage)dyn_storage": {
        "base": "t_struct(People)8_storage",
        "encoding": "dynamic_array",
        "label": "struct SimpleStorage.People[]",
        "numberOfBytes": "32"
      },
      "t_mapping(t_string_memory_ptr,t_uint256)": {
        "encoding": "mapping",
        "key": "t_string_memory_ptr",
        "label": "mapping(string => uint256)",
        "numberOfBytes": "32",
        "value": "t_uint256"
      },
      "t_string_memory_ptr": {
        "encoding": "bytes",
        "label": "string",
        "numberOfBytes": "32"
      },
      "t_string_storage": {
        "encoding": "bytes",
        "label": "string",
        "numberOfBytes": "32"
      },
      "t_struct(People)8_storage": {
        "encoding": "inplace",
        "label": "struct SimpleStorage.People",
        "members": [
          {
            "astId": 5,
            "contract": "contracts/SimpleStorage.sol:SimpleStorage",
            "label": "favoriteNumber",
            "offset": 0,
            "slot": "0",
            "type": "t_uint256"
          },
          {
            "astId": 7,
            "contract": "contracts/SimpleStorage.sol:SimpleStorage",
            "label": "name",
            "offset": 0,
            "slot": "1",
            "type": "t_string_storage"
          }
        ],
        "numberOfBytes": "64"
      },
      "t_uint256": {
        "encoding": "inplace",
        "label": "uint256",
        "numberOfBytes": "32"
      }
    }
  }
}